:1000000080313D28080008007E1480318B190B1CBC
:100010000D289F311C2780313B280B1F3B282100D6
:10002000121D19282000121D19288631EB26803157
:100030003B282100111E26282000111E2628220000
:1000400049088A0048080A0080313B282100911E97
:1000500033282000911E3328220047088A004608D2
:100060000A0080313B282100911C3B282000911C74
:100070003B289F313D277E10090080313F28B53055
:1000800084009E30850023001200C7001200C800C3
:100090001200C9001200CA001200CB001200CC00EE
:1000A0002C30840023308500C430FE000030FF0077
:1000B0009F314927803161308400003085000F3046
:1000C000FE000030FF009F31492780312100E80108
:1000D000E901EA01EB01EC01ED01EE01EF01213054
:1000E0008400013085004930FE000030FF009F3160
:1000F00049278031A0308400013085002730FE0080
:100100000030FF009F3149277E10200088311728DA
:10011000D000500803190800500A86008701010822
:100120000319F7285008023E8600870101080319C9
:10013000C12850088600870114300106031DA62837
:100140008F30860023308700011208005008860097
:10015000870111300106031DB3288F30860023303C
:100160008700011308005008923125228031CC000D
:100170003030C0002330C100CC30C2008531F725BB
:10018000080050088600870114300106031DCE28A0
:100190008F30860023308700011608005008860043
:1001A000870111300106031DDB288F3086002330C4
:1001B0008700011708005008923125228031CE00B7
:1001C0003030BE002330BF00CE30C00096317026E4
:1001D0008031003A031D08003030C0002330C100D8
:1001E000CE30C2000030C3008831E620080050083D
:1001F000023E860087010108031940295008860045
:10020000870112300106031D0B298F308600233031
:10021000870081100800500886008701143001060D
:10022000031D18298F308600233087000110080035
:1002300050088600870111300106031D25298F30E3
:1002400086002330870001110800500886008701CE
:1002500059300106031D32298F3086002330870074
:10026000811208005008923125228031CD003030B3
:10027000C0002330C100CD30C2008531F725080011
:10028000500886008701FA300106031D6F299E3150
:10029000A8268031ED3A031D0800903086002330F7
:1002A0008700010C890C01392100C90090308600BB
:1002B00023308700010C0139CA000230CA35890B8E
:1002C0005E29903086002330870001080139090734
:1002D0004A044904CB004B089131B1210800500871
:1002E00086008701FC3001060319080050088600CB
:1002F0008701010A03190800500886008701AA3007
:100300000106031908005008860087011230010613
:10031000031D90298F308600233087008114080048
:1003200050088600870114300106031D9D298F3077
:1003300086002330870001140800500886008701DA
:1003400011300106031DAA298F3086002330870053
:100350000115080050088600870159300106031D69
:10036000B7298F3086002330870081160800500897
:10037000923125228031CF003030BE002330BF00C3
:10038000CF30C000963170268031003A031D08003E
:100390003030C0002330C100CF30C2000030C30075
:1003A0008831E620080020004203031DE9294008A7
:1003B0001F39003A031DE9292100EA170330200004
:1003C0004106031DE72901302200DE00E929220051
:1003D000DE0120004208031D080040081F39023AD0
:1003E000031D080044080F39003A031908004408A7
:1003F0000F39D600023056020318080020306C0670
:10040000031D08002100EA172000C41B162A440817
:100410000F390907303E860001308700403FDB007E
:10042000413FDC0044080F393A3E232A44080F3983
:100430000907613E86008701403FDB00413FDC0049
:1004400044080F393C3E8600013087000108DA007D
:100450005A18342AFB30D600FF30D7005B08560507
:10046000DB005C085705392A04305B04DB000030F0
:100470005C04DC00C41B482A44080F390907303EDD
:100480008600013087005B08C03F5C08C13F522AEC
:1004900044080F390907613E860087015B08C03FA9
:1004A0005C08C13F03304106031D742A5B088600C7
:1004B0005C088700811F692AC41B622A44080F391F
:1004C0003A3E652A44080F393C3E860001308700D9
:1004D00081145B0886005C08870001155B088600B4
:1004E0005C0887008117080004305B06DB000030E1
:1004F0005C06DC005B0886005C088700811F9D2A83
:100500007F30D6005B0886005C08870056088105AE
:100510005B0886005C08870001170530D0000030BA
:10052000D1005C08D3005B08D2000230D400003058
:10053000D500943135248131A22A5B0886005C08FD
:1005400087000117043020005B06DB0000305C06EA
:10055000DC00DA18B12A5B0886005C088700811F7E
:10056000D62AC41BB72A44080F393A3EBA2A44088F
:100570000F393C3E86000130870081103B30D600A9
:100580005B0886005C088700560881050530D000AE
:100590000030D1005C08D3005B08D2000230D400E8
:1005A0000030D500943135248131DE2A3B30D6002D
:1005B0005B0886005C088700560881052000440817
:1005C0000F39983ED600D7010E30D73D5608D800D7
:1005D0005708D900FE30D600580886005908870011
:1005E000560881050800D3005308803188208231E5
:1005F000203020006C02031C08003D008E1808000B
:100600002000660822003706031D0A2B200065081B
:10061000220036060319152B200066082200B700B9
:10062000200065082200B600002B340836022100A5
:10063000D50022003508373B2100D600D61F302BCD
:100640002200340836022100D10022003508373B51
:100650002100D2005108FF3ED5007F30523DD60028
:100660005608803AD10093305102031D392B89304E
:100670005502031C422B22003608783EB400EC30B1
:10068000373DB5002C30860023308700160001046A
:100690000319592B2C30860023308700403F21005E
:1006A000D100413FD2005108860052088700811BCB
:1006B000D22B00302100A800A9000830AA00003089
:1006C000AB00A0309031CC2082313030C0002330DC
:1006D000C100A230C2009631D22682318F3086000E
:1006E000233087000108A000D401D7015708A03E9D
:1006F000860087015708A03E84000130850000086D
:1007000001060319862BD401D40A8E2B0130D100A7
:100710005108D70708305702031C762B22003808EF
:1007200039040319A72B21005608803AD100220072
:100730003908803A21005102031DA22B22003808FB
:1007400021005502031CA72B2100D401D40A21004B
:100750005403031DD22BA030860000308700A03048
:100760008400013085000830D10016001A00D10B3A
:10077000B52BA801A80AA030A9000030AA000830B3
:10078000AB0001308C31F02482312C3086002330D4
:1007900087002808C03F2908C13F22003708B5005C
:1007A0003608B4002C308600233087004231160012
:1007B00001040319EB2B2C308600233087004231D3
:1007C000403F2100D100413FD2005108860052082D
:1007D0008700811B08009F31272782312100A80153
:1007E0002030A9000130AA00AB01AB0A01308C31E6
:1007F000F0242C3086002330870042312808C03F87
:100800002908C13F080000340034003400340034AB
:100810000034003400340034003400340034003438
:100820000034003400340034E63400340034E4345E
:100830000034003400340034003400340034003418
:1008400000340034E3340034003400340034003425
:1008500000340034E7340034003400340034003411
:100860000034003465340034003400340034003483
:1008700000340034003400340034003400340034D8
:1008800000340034003400340034003400340034C8
:100890000034003400340034003454340034003464
:1008A00000340034003400340034003400340034A8
:1008B0000034003400340034003458340034003440
:1008C0000034003400340034003400340034003488
:1008D00000340034003400344D34003450344A3491
:1008E00000340034003449344C34513400344F3433
:1008F000523400340034003400344E340034463472
:100900004B340034003400340034003400340034FC
:100910000034003400340034003400340034003437
:100920000034003400340034003400340034003427
:100930000034003400340034003400340034003417
:100940000034003400340034003400340034003407
:1009500000340034003400340034003400340034F7
:1009600000340034003400340034003400340034E7
:1009700000340034003400340034003400340034D7
:1009800000340034003400340034003400340034C7
:1009900000340034003400340034003400340034B7
:1009A00000340034003400340034003400340034A7
:1009B0000034003400340034003400340034003497
:1009C0000034003400340034003400340034003487
:1009D0000034003400340034003400340034003477
:1009E0000034003400340034003400340034003467
:1009F0000034003400340034003400340034003457
:100A0000003400344B080319452D200069080319F0
:100A10002D2D0930690203182D2D6908FF3EFC00B9
:100A200022004C082000DC007C0A172DDC36890BE4
:100A3000162D5C1C1D2D01301E2D0030FD007D0883
:100A400003192B2D22008C1601302000DC005C08DD
:100A50002200CA073C2D2200342D09306906031DEF
:100A6000362D22004A1C3B2D8C123C2D0A30690683
:100A7000031D3C2D21008C1601302000DC005C0899
:100A8000E90701302200CB0208009F310927853198
:100A90002C0870022000DC0022002D08713B200091
:100AA000DD0022002E08723B2000DE0022002F080D
:100AB000733B2000DF005F08031D682D5E08031DE7
:100AC000682D5D08031D682DFA305C02031CD42DCF
:100AD00001302200D300D42D2200D201D101E50142
:100AE0000230AA2D00308C1A01302200CF004F08AE
:100AF0002000DC002200520A20007F2DDC35890B0B
:100B00007E2D5C08DD005D082200E5044F08200012
:100B1000DC005C082200D10701302000DC005C080A
:100B20002200D20708305206031D702D0330AA2D73
:100B300000308C1A01302200CF004F082000DC006A
:100B40005C082200D107511CA72D0130A82D0030D0
:100B5000D0000430D300EC2DE03022006506031DE8
:100B6000B42D0130CE00D12DF0306506031DBB2D14
:100B70000130CD00D12D4D08E7004E08E6005008A9
:100B80000319CE2D91302000D5002330D6006530DA
:100B9000D7000130D80088317E2085312200CD0178
:100BA000CE012200D301EC2D220053082000DC00EE
:100BB000DD015D08003A0319DE2DD12D5C08013AF4
:100BC00003196C2D033A0319722D013A0319982D5C
:100BD000073A0319AC2DD12D9F3109277308AF00B7
:100BE0007208AE007108AD007008AC000800410842
:100BF000A9004008A8009F31D92785312808290479
:100C0000031D080040085C3E86000030413D87001F
:100C10000108C70040085D3E86000030413D870066
:100C200001084706031908004708C300C401430828
:100C3000AF004408B00040085A3E86000030413DF5
:100C40008700403FB100413FB200913160218531C2
:100C50002F084007C5003008413DC6004508B500D3
:100C60004608B6004208B70040085A3E86000030E9
:100C7000413D8700403FB800413FB90093318A238E
:100C8000853135083604031DDB2E4708C8004008AF
:100C90005D3E86000030413D87000108480603198B
:100CA000B12E4808C300C4014308AF004408B00097
:100CB00040085A3E86000030413D8700403FB10069
:100CC000413FB2009131602185312F084007B500C6
:100CD0003008413DB6004808013EAA000030031824
:100CE0000130AB000F30A8000030A9009431F62489
:100CF00085312908B0002808AF0040085A3E860018
:100D00000030413D8700403FB100413FB20091318A
:100D1000602185312F084007C5003008413DC600DD
:100D20004508B7004608B80040085A3E8600003023
:100D3000413D8700403FB900413FBA009331342321
:100D400085310F30A8000030A9004808013EAA00F4
:100D5000003003180130AB009431F62485312808A7
:100D6000462E0F30A8000030A90040085D3E8600E6
:100D70000030413D870001080E3EAA0000300318F4
:100D80000130AB009431F6242808C30040085D3ED2
:100D9000C4000030413DC500440886004508870076
:100DA0004308810040085E3E86000030413D8700D8
:100DB0000130810208000F30A8000030A900470868
:100DC000013EAA00003003180130AB009431F62434
:100DD00085312808092E6C03031DF72E3D008E1A5D
:100DE000F72E90011214121602302000EC003D0084
:100DF0001019121D042FFB302000DF005F083D009A
:100E000090059131E92186313D008E1C0A2F20008A
:100E1000121108001018121C1A2F8D31FE25863170
:100E20002100121504302000EC00FE30DF005F08C6
:100E30003D009005101A121E202F9031FA208631A5
:100E40003D00101F482F121F342F73302000D00098
:100E50000030D1000030D200D3000130D400003087
:100E6000D500943135248631BF302000DF005F0883
:100E70003D0090058831002086315A080319422F21
:100E80000130DA025A08031D482F8A318C2286313C
:100E90003D00901A921E4F2F9231A4228631901855
:100EA000921C632FFF302000D0007F30D100003033
:100EB000D200D3000130D4000030D5009431352465
:100EC00086313D009301043020006C0203186A2F24
:100ED000121108003D00921DBB2F2000E001B82F29
:100EE0000F082000ED006D0CDF00DF0C5F0C0F39E8
:100EF0002200DC00F7302000DF005F083D00900595
:100F000020006D19872F22005C083A3E8A2F2200AC
:100F10005C083C3E86000130870001080139200052
:100F2000DF000130DF0601085F06FE395F06810041
:100F300022005C08031DA02F95313B258631AF2F81
:100F400072302000D0000030D1006D30D20000306F
:100F5000D3000030D400D5009431352486310130DF
:100F60002000DF005F08E007043060020318BB2F99
:100F70003D009019702F20001211080021009112DD
:100F8000C130A8001330A9009E31F126873121001D
:100F900011120630A8001230A9009E31F9268731BF
:100FA000083023009F0080309D0024309E00E130F7
:100FB0009B0004309C00A4302100A8001E30A90032
:100FC0009E31E1268731B1302100A8001E30A900F2
:100FD0009E31E9268731A5302100A8001E30A900E6
:100FE0009E31D926E001E401E30108302100EF0041
:100FF000EE012200E201E101210091160800080043
:1010000001302300C0070030C13D0030C23D003038
:10101000C33D22005D08031D08000130F000700888
:10102000D4075408031D0800FF30D4000800903195
:10103000A12088319F313227883191319621883122
:101040008B170B17230044082100E50023004508F7
:101050002100E600230046082100E700C730860093
:1010600001308700D9308400003085000630D80078
:1010700016001A00D80B3828E5309131CD2188317F
:10108000E300630803194728E530E4004828E40139
:10109000640803197928640A860087010108031D82
:1010A0005328203054286530DF000030E0005F080E
:1010B000D9006408023E860087010108031D6228EA
:1010C000203063286230E1000030E2006108DA007D
:1010D000DB30AC000230AD006408860087010108F7
:1010E0009231E92288310630AA00D93091317B2132
:1010F000883164088231F32288313C285608F10097
:101100005508F0009F31EC27883170087104031DE9
:10111000080055085D3E86000030563D87000108F6
:10112000D900DA015908F0005A08F10055085A3E72
:1011300086000030563D8700403FF200413FF300FB
:1011400091314521883170085507F6007108563DE8
:10115000F7005808F9005708F80055085A3E86006D
:101160000030563D8700403FFA00413FFB0093317D
:101170000E2388310F30F0000030F10055085D3E3D
:1011800086000030563D87000108013EF200003025
:1011900003180130F3009431B1247008D9005508C8
:1011A0005D3EDA000030563DDB005A0886005B08E1
:1011B0008700590881000130D90055085E3E86003D
:1011C0000030563D87005908810708004108A900F2
:1011D0004008A80090318D20883128082904031D7B
:1011E000080040085D3E86000030413D8700010850
:1011F000C400C5014408AF004508B00040085A3E8D
:1012000086000030413D8700403FB100413FB200C1
:101210009131602188312F084007B5003008413DE9
:10122000B6004308B8004208B70040085A3E86009E
:101230000030413D8700403FB900413FBA00933143
:10124000342388310F30A8000030A90040085D3EEB
:1012500086000030413D87000108013EAA000030B1
:1012600003180130AB009431F6242808C40040086C
:101270005D3EC5000030413DC60045088600460879
:101280008700440881000130C40040085E3E8600AB
:101290000030413D87004408810708002000400ECF
:1012A000890C0339003A031D080093292100EA172D
:1012B00008302000EC0008008A31FE2208008A3144
:1012C000202208006F302100E8000030E9006A1495
:1012D0000130EB00EA17080096311B260800813127
:1012E000D321080044086E3E2100E800E9016A1499
:1012F0000130EB00EA1708002100EA17200044083B
:101300006E3E860087014208810008000230D0004E
:101310000030D1000030D200D3000030D400D5001E
:101320009431352408004108003A03196C29013A28
:1013300003196F29023A03196F29063A031956292E
:10134000033A03195C29013A031986290F3A031954
:101350006229013A03195F29033A03197229013AF4
:1013600003197C29073A0319B629B6290800410850
:10137000A9004008A8009F31D927893128082904ED
:10138000031D08004208B500B60140085C3E860017
:101390000030413D87000108C300C4014308AF008D
:1013A0004408B00040085A3E86000030413D8700A6
:1013B000403FB100413FB2009131602189312F0897
:1013C0004007C5003008413DC6004508B700460843
:1013D000B80040085A3E86000030413D8700403F3B
:1013E000B900413FBA009331342389310F30A8004E
:1013F0000030A90040085C3E86000030413D870077
:101400000108013EAA00003003180130AB009431FE
:10141000F6242808C30040085C3EC4000030413D6B
:10142000C50044088600450887004308810040083D
:101430005E3E86000030413D870001308102080099
:101440002100EA170E302000D7009930D600D801CD
:10145000560886005708870081010130D607003002
:10146000D73D0130FD007D08D80758080319282A08
:101470000030F000F1002030F2000030F3002030A6
:101480009031B6208A313D000E172000D90159084D
:101490003C3E860001308700810159083A3E8600B3
:1014A0000130870081010130FD007D08D90702303D
:1014B0005902031C472A0030F000F1000130F2000D
:1014C0000030F3006E309031B6208A313D000E13AB
:1014D00028302000E1000030E2002030EB006B08F3
:1014E000E700E8014208EF006F08031D7A2A103078
:1014F000EC0008000130D0000030D1006F30D20085
:101500000030D3000130D4000030D50094313524B0
:1015100020302000EC00080022005808031D0800BD
:101520000130D8005708031D08000130D7000230F1
:1015300020006A06031DAE2A610886006208870043
:1015400041318101610886006208870048308100CE
:101550006108860062088700811708006A03031D7E
:1015600008002200DB0120006B0A8600870108309A
:1015700081004030F0000030F100FF307005F200D3
:101580007F307105F3006B08023E86008701720808
:10159000C03F7308C13F6B0886008701043081009B
:1015A0006B0886008701811701302200DB002000D4
:1015B0006708013EF0000030683DF10070088600C9
:1015C00071088700083081004030F0000030F100E1
:1015D000FF307005F2007F307105F3006708860068
:1015E0006808870042317208C03F7308C13F67082E
:1015F0008600680887008030810008008030200065
:101600004006031D0800C0302100EA006A2BB830F4
:101610002100E8009830E9000030EC001230EB00C7
:1016200008004208031D402B4208F000F101F0358C
:10163000F10DD430700784001830713D803885007A
:10164000003F2100E800013FE9006908F100680857
:10165000F00002307007840071080318710A8500D9
:101660000008EB006908F1006808F000033070071B
:10167000840071080318710A85000008EC00080056
:101680002100EA010800033042020318642B4208DB
:10169000F000F101F035F10DCA3070078400183008
:1016A000713D80388500003F2100E800013FE900DE
:1016B00068088400690885000008F000F1017008DE
:1016C000EB007108EC0008002100EA01080021008D
:1016D000EA01080020004308013A0319072B033AE6
:1016E0000319112B013A0319432B672B08006108DA
:1016F0008600620887000030011B0130F7000430CB
:101700006106E10000306206E20008306C06031D4D
:10171000952B42087F393D00960016080319922B3D
:101720001030932B04302000EC006A03031DDD2BE6
:101730004830F3000030F400FF307305F5007F30CF
:101740007405F6006108860062088700423175085A
:10175000C03F7608C13F973134278B3102302100DA
:101760006D06031DC02B20006108860062088700FB
:101770000430810061088600620887008117080034
:101780007708031DD02B20006108860062088700BF
:1017900048308100610886006208870081170800D0
:1017A0002000610886006208870008308100610817
:1017B000860062088700811708002200A31FEF2B14
:1017C000260827040319EE2B0530213E8600013040
:1017D0008700413F8A00403F0A008B31A31320005D
:1017E000EA01080040081F39013A031D08004408B7
:1017F000031D0800063041060319172C222C6F0325
:10180000031D222C85302100E8009830E9000030CB
:10181000EC000930132C00302100E8009830E9007A
:101820000030EC003F30EB00C030EA00222C4308CF
:10183000213A0319FF2B033A03190B2C013A031920
:10184000222C222C2000400E890C0339013A031D62
:1018500008005B2C9F317C27080069302100E800DC
:101860000130E9000030EC000130EB00C130EA004B
:10187000080080302100EA00200043082200E9002F
:101880006908F000200042089F316F270800683087
:101890002100E8000130E9000030EC000130EB00ED
:1018A0008130EA00080080302100EA002000420870
:1018B0002200E80008004108013A03196F2C033A9E
:1018C00003192D2C013A0319472C0A3A03192A2C23
:1018D000033A0319392C013A0319532C6F2C0800D1
:1018E000F800700803197C2C7835613E860087016A
:1018F000403FF900413F842C7835303E860001306E
:101900008700403FF900413FFA0079087A04031D3F
:101910008C2CF001F1010800FF307105F4007F30DC
:101920007205F500790886007A088700423174084C
:10193000C03F7508C13F7908013EF40000307A3D90
:10194000F500740886007508870073088100403030
:10195000F400790886007A08870074088105790800
:1019600086007A0887008115790886007A08870042
:10197000811770080319D32C7835613E86008701E2
:10198000403FF400413FF50004307406F60000309B
:101990007506F7007835613E860087017608C03FFE
:1019A0007708C13FEB2C7835303E86000130870048
:1019B000403FF400413FF50004307406F60000306B
:1019C0007506F7007835303E8600013087007608CE
:1019D000C03F7708C13F7A08F1007908F00008009D
:1019E000B00028080319FC2C3035613E86008701C1
:1019F000403FB100413F042D3035303E860001307C
:101A00008700403FB100413FB20031083204031D5E
:101A10000C2DA801A9010800FF302905AC007F307A
:101A20002A05AD00310886003208870042312C08B3
:101A3000C03F2D08C13F3108013EAC000030323DAF
:101A4000AD002C0886002D0887002B08810040304F
:101A5000AC0031088600320887002C088105310867
:101A60008600320887008115310886003208870019
:101A7000811728080319532D3035613E86008701F0
:101A8000403FAC00413FAD0004302C06AE000030BA
:101A90002D06AF003035613E860087012E08C03F1D
:101AA0002F08C13F6B2D3035303E86000130870056
:101AB000403FAC00413FAD0004302C06AE0000308A
:101AC0002D06AF003035303E8600013087002E08ED
:101AD000C03F2F08C13F3208A9003108A800080004
:101AE0003D000E122100EA1BBC2D2200A31F852DF4
:101AF00002302000EA0022005508031D812D973195
:101B000099272200D701D801080020006708013E6C
:101B1000F7000030683DF8007708860078088700F5
:101B2000083081004030F7000030F800FF307705C2
:101B3000F9007F307805FA0067088600680887009A
:101B400042317908C03F7A08C13F670886006808BB
:101B500087000C30810067088600680887008117BD
:101B600061088600620887000430810061088600F1
:101B700062088700811708002000C01FD12D0130A6
:101B8000EA0022005608031DC82D973199278D3190
:101B90002200D701D8015908031D08008A318C2280
:101BA00008000230EA006708013EF7000030683D97
:101BB000F8007708860078088700083081004030F8
:101BC000F7000030F800FF307705F9007F30780526
:101BD000FA00670886006808870042317908C03F2C
:101BE0007A08C13F670886006808870004308100D2
:101BF00067088600680887008117C82D2100121128
:101C00003D009301900198010E30F5009930F400E9
:101C1000F601740886007508870081010130F40719
:101C20000030F53D0130F0007008F6077608031922
:101C3000092E163091009F3097007B309200F701FB
:101C40007708F0000130F035FF3E031D232E70357C
:101C5000203E860087010030C03F0030C13FC23FB8
:101C6000C33F0130F0007008F70708307702031C0B
:101C7000202E0E1796010E120E13F730F00070088A
:101C800090052100EA012200A301A401A5013D0065
:101C900090193D2E01302200D8000130D700D60126
:101CA000D501DD01F7017735613E860087010030FF
:101CB000C03FC13F7735303E86000130870000309D
:101CC000C03FC13F77083C3E86000130870081015C
:101CD00077083A3E86000130870081010130F0002C
:101CE0007008F70702307702031C532E28302000BB
:101CF000E1000030E20016303D0098004030F00076
:101D00000030F100FF307005F2007F307105F30004
:101D100072082000A2007308A3000830A10004305C
:101D2000A000A017EF0100302300C3000030C20064
:101D30000030C1000030C0002200D4012000EC01BE
:101D4000080012113D009301900198010E3021000E
:101D5000AD009930AC00AE012C0886002D0887003C
:101D600081010130AC070030AD3D0130A8002808EA
:101D7000AE072E080319AC2E16303D0091009F309F
:101D800097007B3092002100AF012F08A80001309E
:101D9000A835FF3E031DC82E2835203E860087014A
:101DA0000030C03F0030C13FC23FC33F0130A800F8
:101DB0002808AF0708302F02031CC52E3D000E1760
:101DC00096010E120E13F7302100A80028083D00DE
:101DD00090052100EA012200A301A401A5013D0014
:101DE0009019E32E01302200D8000130D700D6012F
:101DF000D501DD012100AF012F35613E860087014D
:101E00000030C03FC13F2F35303E86000130870093
:101E10000030C03FC13F2F083C3E860001308700A4
:101E200081012F083A3E8600013087008101013090
:101E3000A8002808AF0702302F02031CFC2E283010
:101E40002000E1000030E20016303D0098004030F4
:101E50002100A8000030A900FF302805AA007F302B
:101E60002905AB002A082000A20021002B08200031
:101E7000A3000830A1000430A000A017EF0100303B
:101E80002300C3000030C2000030C1000030C00099
:101E90002200D4012000EC0108006B0886008701B5
:101EA000413FF9007908F400F50175082200250288
:101EB000031D5C2F740824020318602F2408F90006
:101EC0007908F400F5017408A4027508A53BF8012F
:101ED0007908780203187E2F210886008701780888
:101EE000483E84008501000881000130F400740838
:101EF000A1070130F4007408F807682F24082504AE
:101F00000319BF2F20006708013EF4000030683D30
:101F1000F500740886007508870008308100483095
:101F2000F4000030F500FF307405F6007F307505D1
:101F3000F700670886006808870042317608C03FCE
:101F40007708C13F6B0886008701011BB32F670824
:101F500086006808870048308100670886006808A6
:101F60008700811708006708860068088700083026
:101F70008100670886006808870081170800200034
:101F80006708013EF4000030683DF50074088600E3
:101F900075088700083081004030F4000030F500FB
:101FA000FF307405F6007F307505F700670886007E
:101FB0006808870042317608C03F7708C13F67084C
:101FC000860068088700043081006708860068087A
:101FD000870081172200260827040319F92F0530EE
:101FE000213E860001308700413F8A00403F0A00C1
:101FF0008F31A3135908031D08008A318C22080071
:102000000034423400343E343C343A343B344534BA
:102010000034433441343F343D342B3435340034C0
:102020000034E234E1340034E03414341E3400343B
:10203000003400341D34163404341A341F34003490
:10204000003406341B34073408342134203400347F
:1020500000342C3419340934173415342234003444
:102060000034113405340B340A341C342334003466
:102070000034003410340D34183424342534003442
:10208000003436340E340C34123427342634003401
:102090000034373438340F34333413342D340034AF
:1020A00000340034343400342F342E3400340034FF
:1020B0003934E534283430340034313400340034D9
:1020C0000034003400340034003400342A34003446
:1020D00000341E34003421342434003400340034FD
:1020E000273437341F3422342334253429345334ED
:1020F00044342E3420342D34253426340034003436
:1021000000340034003440340130A8070030A93DC9
:102110000030AA3D0030AB3D080028085E3E860036
:102120000030293D87000F300106031D992801303A
:102130009A280030AA00AB012A08A8002B08A900A1
:10214000080093315A2390319F31892790319E3175
:10215000AB2690319F31C82790318731BE2790310F
:102160008E31A1269031913112210800F5007508B9
:10217000F6000130F2020030F33B720A0319730AD1
:102180000319080076088600870170088100013075
:10219000F4007408F607B928AE002E08AD0001302F
:1021A000AA020030AB3B2A0A03192B0A03190800C4
:1021B0002D0886008701280881000130AC002C081A
:1021C000AD07CF2821006E08B03E860001308700A1
:1021D0002300190881000130F00070082100EE078B
:1021E00008306E020318EE010130F0007008220082
:1021F000E10708001215EF30FD007D0890058E14F0
:1022000001302200DD00D40175302000D000003004
:10221000D1000030D200D3000030D400D50094317A
:10222000352408006C08031D08003D008E01920152
:10223000163091009F3097007B30920021001215DC
:102240000B178B173D008E1927298E152229013077
:102250002000EC000800F0007008CC008B13210077
:102260000C1222000C12F0300032890B34292100AC
:102270000C162000E9010C302200CB00CA0121001D
:102280008C1222008C128B170800F401F501701CCF
:102290004D297208F4077308F53D0130F235F30D4E
:1022A000890B4E290130F136F00C890B5329700847
:1022B0007104031D47297508F1007408F000080037
:1022C000B301B4012F1C68293108B3073208B43DAB
:1022D0000130B135B20D890B69290130B036AF0C30
:1022E000890B6E292F083004031D62293408B000C1
:1022F0003308AF000800AC00AD012A082D02031816
:1023000008009E31C2269131003A031981292D0817
:102310002C07AB002B088600870101089231C622EA
:1023200091310130AB002B08AD077D2991302100A0
:10233000A8002330A9000330AA000030AB0092317E
:10234000842291310230A8000530A9009E31C926AF
:10235000913196302100A8001F30A9009E31D1266E
:1023600008002100A80028082200CC008B132100BF
:102370000C1222000C12F0300032890BBC29210013
:102380000C162000E9010C302200CB00CA0121000C
:102390008C1222008C128B1708002100C70091308C
:1023A000A8002330A9009F31D9279131280829049A
:1023B000031DE6299130C0002330C1004708C20048
:1023C0008931B7219131C801C80AE729C8014808F5
:1023D00008002200DD0174302000D0000030D10060
:1023E0000030D200D3000030D400D5009431352421
:1023F00091313D008E101211101D032AFB30FD009B
:102400007D089005FC292200D40108000830210035
:102410006F020318232A22006308B83E86000130A9
:102420008700010823009A000130F00070082200A4
:10243000E307083063020318E3010130F00070087D
:102440002100EF07080011120800A800280A8600E2
:10245000870101080319382A280886008701010826
:10246000033E840084300318013E85000008080004
:102470002808860087010108003E84009030031878
:10248000013E850000080800FC00771D4C2AF00181
:102490007C08943172249231F71C532AF001F00A1F
:1024A0007C08943172247C08983EF800F9010E30C3
:1024B000F93D7808FA007908FB007A0886007B0865
:1024C000870077088100080070085A3E86000030B7
:1024D000713D87007208C03F7308C13F70085C3EC1
:1024E00086000030713D8700810170085D3E8600E6
:1024F0000030713D8700810170085E3E860000302B
:10250000713D87008101080028085A3E860000308E
:10251000293D87002A08C03F2B08C13F28085C3EA0
:1025200086000030293D8700810128085D3E860035
:102530000030293D8700810128085E3E860000307A
:10254000293D870081010800181CC12A20006B0862
:102550008600870180300106031DBF2A61088600BE
:102560006208870084300106031DBF2A6B088600BD
:1025700087010C3081006B088600870181173D00C0
:102580001810DF30F000700890050800A9006F08EF
:102590000319C72A111AD02A290823009A00E62A0B
:1025A000111222006408B83E860001308700210025
:1025B000290881000130A80028082200E40708301B
:1025C00064020318E40101302100EF02210011161A
:1025D0000800B00002302D02031C08003008AE00D5
:1025E0000430AE36890BF12A2E08B100F030A80075
:1025F00031089F31A62792313007AF002C088600A2
:10260000870131089F31B727923181002C0A86005B
:1026100087012F089F31B727810008007908D30070
:102620007808D2007708D1007608D0000130FA028D
:102630000030FB3B7A0A03197B0A03190800520891
:102640008600530887000108D4000130D20700300B
:10265000D33D50088600510887005408810001309E
:10266000D0070030D13D162B3808BE003708BD001A
:102670003608BC003508BB000130B9020030BA3B57
:10268000390A03193A0A031908003D0886003E0872
:1026900087000108BF000130BD070030BE3D3B0888
:1026A00086003C0887003F0881000130BB070030EE
:1026B000BC3D3C2B22008C018D018E01303021006D
:1026C0008C0070308D00FF308E00CF3023008E00E4
:1026D0008D018C0124008D0130308C002100951378
:1026E00022009D0127001312931212169216111246
:1026F000911202302100A8000030A9009E31C926A5
:10270000933103302100A8000030A9009E31D1266A
:102710008B1508003608BC003508BB003708BD0023
:10272000A82B3D08860087013B0884003C088500F3
:1027300000080106031DAC2B0130B8020030B93B84
:102740000130BB070030BC3D0130BA003A08BD077C
:1027500038083904031D912B38083904031DB32BA5
:10276000B501B60108003B0886003C0887003D081B
:102770008400850100080102B500B601031CB60300
:10278000080021006E08A83E860001308700810104
:1027900023001D1DD82B21006E08A83E86000130A5
:1027A00087008114220043088A0042080A009331FE
:1027B00023009D1CE82B21006E08A83E86000130F6
:1027C00087000115220041088A0040080A00933161
:1027D00021006E08A83E8600013087000108031919
:1027E000F82B22003F088A003E080A0093310800B7
:1027F0009031E220080002306A06031D022C8F315E
:102800004D270800EA0122005B08031D332C20003D
:102810006708013EFA000030683DFB007A08860038
:102820007B088700083081004030FA000030FB0050
:10283000FF307A05FC007F307B05FD0067088600CD
:102840006808870042317C08C03F7D08C13F6708A7
:102850008600680887000C308100670886006808D9
:10286000870081170800DB0108004A2C650A7F30C9
:10287000031966060319412C0130E5070030E63DD7
:102880000800E501E60108009531CB2508008B31F1
:10289000F22308005108003A0319522C7F3A031919
:1028A0006C2C712C5008013A0319442C033A03197B
:1028B000712C013A0319472C063A0319712C773A07
:1028C0000319712C013A0319362C073A0319712C9C
:1028D000013A0319712C712C5008FF3A0319712C1D
:1028E000712C0800F5002030F6007008F10001306E
:1028F000F135890B782C7508F2000130F235FF3E76
:10290000031D7E2C72357107F3000130F335FF3E55
:10291000031D862C7335F4007408F60776088600CC
:10292000870181137008031D9F2C7535303E86008A
:10293000013087007608C03F0030C13FA72C7535B5
:10294000613E860087017608C03F0030C13F7608AF
:102950008600870101137608043E8600870101176F
:102960000800F601F31FBB2CF209F309F20A031960
:10297000F30AF601F60AF11FC22CF009F109F00A78
:102980000319F10A700871040319E92CF501F50A1D
:10299000F11BD42C0130F035F10D890BCB2C01301B
:1029A000F4007408F507C82C71087302031DDA2CB3
:1029B00070087202031CE02C7008F2027108F33BED
:1029C0000130F136F00C890BE12C0130F502031DCA
:1029D000D42C76080319F12CF209F309F20A031931
:1029E000F30A7308F1007208F0000800AE01AB1F93
:1029F000002DAA09AB09AA0A0319AB0AAE01AE0A57
:102A0000A91F072DA809A909A80A0319A90A2808B6
:102A1000290403192E2DAD01AD0AA91B192D013072
:102A2000A835A90D890B102D0130AC002C08AD077D
:102A30000D2D29082B02031D1F2D28082A02031C17
:102A4000252D2808AA022908AB3B0130A936A80C7D
:102A5000890B262D0130AD02031D192D2E080319F7
:102A6000362DAA09AB09AA0A0319AB0A2B08A9003B
:102A70002A08A80008002D30DA0020006D08FD3972
:102A8000031D782D6D363F39DE000130DE35FF3E07
:102A9000031D462D5E35203EEB006B08E700E80184
:102AA00004306706E70000306806E8006B0886001F
:102AB0008701010C890C0F390D3A031D752D40302B
:102AC000F6000030F7006B08023E86008701403FA9
:102AD000F800413FF9000830FA000030FB00933164
:102AE0000E2395319531822508009331FB23080090
:102AF000FD306D05DE0004305E06031D08008B31DD
:102B0000772308002100ED012200D901D601D5016B
:102B1000DB012000EA017F30DD00610886006208E9
:102B200087005D08810504306106E100003062061F
:102B3000E2007F30DD0061088600620887005D08E2
:102B4000810504306106E10000306206E2007F305A
:102B5000DD0067088600680887005D0881052100A0
:102B6000EA01EB01EC012200A301A401A5018931D6
:102B70004E21953103302000D0000030D1000030CC
:102B8000D200D3000030D400D500943135249531E3
:102B90008D31702508003030F0002330F100013015
:102BA000F2000030F3009231642295318F308600BC
:102BB0002330870081019030860023308700810117
:102BC0002C308600233087000030C03FC13FFA30F0
:102BD0002200B8000030B900200066082200350647
:102BE000031DF62D20006508220034060319012E6E
:102BF000200066082200B500200065082200B4000D
:102C0000EC2D1E30F7000130923144229531F00155
:102C10002030F1000130F200F301F30A01308C3171
:102C200070242C3086002330870042317008C03F6A
:102C30007108C13F08002000C801C901592E2100B8
:102C4000EA1722005E03031D652E2000C814652EBE
:102C50002100EA17652E2100EA17200044080F39E9
:102C6000003A0319652EC41B402E44080F3909078A
:102C7000303E860001308700403FF000413F492E42
:102C800044080F390907613E86008701403FF00084
:102C9000413FF1007008860071088700811F652E92
:102CA0007008860071088700011D652E0130C8007C
:102CB000652E40081F39003A03191F2E013A0319E7
:102CC000282E033A03192B2E652E2100EA1F080037
:102CD0004830E8000030E9006A140230EB000800D8
:102CE0003F08A9003E08A8009F31D927963128083F
:102CF0002904031DD02E3E085C3E860000303F3D77
:102D000087000108C5003E085D3E860000303F3D5B
:102D10008700010845060319D02E4508C100C201ED
:102D20004108AF004208B0003E085A3E860000301D
:102D30003F3D8700403FB100413FB20091316021EB
:102D400096312F083E07C30030083F3DC4004308BA
:102D5000B5004408B6004008B7003E085A3E860059
:102D600000303F3D8700403FB800413FB9009331FC
:102D70008A23963135083604031DC02E0130080021
:102D80000F30A8000030A9004508013EAA0000301D
:102D900003180130AB009431F62496312808822EB6
:102DA0000030080040085C3E86000030413D87004E
:102DB0000108C700C80140085E3E86000030413D62
:102DC000870001084802031808004808A8004008C6
:102DD0005A3E86000030413D870001089F31A627FA
:102DE00096314207B500B6014708C300C401430845
:102DF000AF004408B00040085A3E86000030413D14
:102E00008700403FB100413FB200913160219631CF
:102E10002F084007C5003008413DC6004508B700EF
:102E20004608B80040085A3E86000030413D870001
:102E3000403FB900413FBA009331342396310F30FF
:102E4000A8000030A9004708013EAA00003003187E
:102E50000130AB009431F62496312808C7000130C8
:102E6000C3004308C807DB2E0830F2000030210001
:102E70006C02083003196B0203184A2F6B08F2002A
:102E80006D08031D452F0130492F6D03031D4A2F87
:102E90000230ED007208F000F1017008EB027108D9
:102EA000EC3B20006108013EF0000030623DF10083
:102EB000700886007108870072088100483022007F
:102EC000DF0021006A1C7B2F952F22005F088600FF
:102ED00087012100680884006908850000088100D6
:102EE0000130E8070030E93D0130F00070082200B1
:102EF000DF070130F202720803190800652F220073
:102F00005F08860087012100680884006908850041
:102F1000000881000130E8070030E93D0130F00091
:102F200070082200DF070130F2027208031908005E
:102F30007F2FD601D501023020006A06031DCB2F5A
:102F40006708013EF3000030683DF4007308860016
:102F500074088700083081004830F3000030F40026
:102F6000FF307305F5007F307405F60067088600B2
:102F70006808870042317508C03F7608C13F67087E
:102F80008600680887004830810067088600680866
:102F900087008117080021006C0820004702031DEC
:102FA000D52F21006B08200046020318DE2F4708AA
:102FB0002100EC00200046082100EB009731342767
:102FC0004830F3000030F400FF307305F5007F3027
:102FD0007405F6002000610886006208870042310F
:102FE0007508C03F7608C13F610886006208870007
:102FF0004830810061088600620887008117080058
:103000000534013409340634A1340134053407345D
:103010001934E0342934E7341534003425340134CC
:1030200075340134953408348134023495340134D4
:1030300075340834813403349534053475340134DF
:1030400005340834193401342934053491340234F8
:103050009534013475340334913403349534063493
:103060007534083415340034253465340534073498
:10307000193400342934653481340034C034343494
:1030800003344D3400346934003463340034723412
:1030900000346F34003463340034683400346934ED
:1030A0000034703400342034003454340034653437
:1030B000003463340034683400346E3400346F34C8
:1030C00000346C3400346F340034673400347934A5
:1030D000003420340034493400346E340034633416
:1030E00000342E34003409340234293400340134DD
:1030F00001340034C0343234093404340034003430
:1031000002340334013401340034093421341134DD
:1031100001340034013422343F34003407340534A0
:103120008134033408340034013407340534013465
:1031300003340834003401341C3403344B34003479
:103140006534003479340034623400346F34003430
:103150006134003472340034643400342034003478
:1031600044340034653400346D3400346F3400343A
:103170001234013400340234003400340034083492
:10318000D83404345534003401340034013402346A
:1031900000340134D03498343F3498349C3498341B
:0C31A000043403340934043473349834CC
:103D480008009031E220080022004C0808001630D4
:103D58009700080020001C15080023001D121D16DE
:103D6800080020342034203420340D340A34200054
:103D780048082200A0009F31122708006F08031985
:103D8800C72E013008000030080029082200ED0085
:103D9800210028082200EC00080029082200EB0076
:103DA800210028082200EA00080029082200BF0094
:103DB800210028082200BE00080029082200C300AC
:103DC800210028082200C200080029082200C1009A
:103DD800210028082200C000080029082200C70086
:103DE800210028082200C600080029082200C9006E
:103DF800210028082200C800080029082200C50060
:103E0800210028082200C40008002B08F3002A0813
:103E1800F2002908F1002808F00008009030860018
:103E28002330870020088100ED3091312B210800D4
:103E38002700131E222F9F3155279F31931E0800FC
:103E48009F316227080090308600233087002200C7
:103E580020088100ED309131B12108008430210023
:103E6800A8001030A9009F3101279F319E31AE264E
:103E78000800911022004408450403190800450869
:103E88008A0044080A009F3108006400800101315B
:103E98000130FE020030FF3B7F087E040319003426
:103EA8004A2F22006C086D0403195F2F6D088A00E1
:103EB8006C080A009F3127001312080022006A08C4
:103EC8006B0403196C2F6B088A006A080A009F317B
:103ED800270093120800F3007308031D08007008F8
:103EE800F100F20171082200B8007208B900080058
:103EF80048302200A1000030A5000830A4001E3080
:103F0800A700BB30A600A3170800FC3021009900C9
:103F18009801903027009B002200960121001A1B6F
:103F28000800922F5308031D08000130D3009F3169
:103F380009277308AF007208AE007108AD00700859
:103F4800AC000800AB00AA012B1CAE2F2808A90062
:103F58002908AA070310A80D0310AB0C2B08031D92
:103F6800A82F2A080800A8000A3028020318BF2F23
:103F78002808303E0800103028020318C62F2808E9
:103F8800373E0800583008005D3020009B009A0139
:103F9800911021009114FF30A8000730A9009F312B
:103FA80001270F3020009C00080028085E3E86008C
:103FB8000030293D87000108031DE42F0130E52F5B
:103FC8000030AA00AB012A08A8002B08A9000800A5
:103FD80070085E3E86000030713D87000F30010694
:103FE800031DF82F0130F92F0030F200F301720899
:083FF800F0007308F10008005D
:020000040001F9
:04000E00E43FCF3FBD
:00000001FF
