:1000000080313D28080008007E1480318B190B1CBC
:100010000D289F31082780313B280B1F3B282100EA
:10002000121D19282000121D19288631EA26803158
:100030003B282100111E26282000111E2628220000
:1000400049088A0048080A0080313B282100911E97
:1000500033282000911E3328220047088A004608D2
:100060000A0080313B282100911C3B282000911C74
:100070003B289F3129277E10090080313F28A2307C
:1000800084009E30850023001200C7001200C800C3
:100090001200C9001200CA001200CB001200CC00EE
:1000A0002C30840023308500C430FE000030FF0077
:1000B0009F313527803161308400003085000F305A
:1000C000FE000030FF009F31352780312100E9011B
:1000D000EA01EB01EC01ED01EE01EF0121308400BA
:1000E000013085004A30FE000030FF009F31352787
:1000F0008031A0308400013085002730FE000030C0
:10010000FF009F3135277E1020008A318A2AD000D7
:10011000500803190800500A8600870101080319D6
:10012000F6285008023E8600870101080319C028FE
:1001300050088600870114300106031DA5288F3062
:1001400086002330870001120800500886008701CE
:1001500011300106031DB2288F308600233087003E
:10016000011308005008923124228031CC00303035
:10017000C0002330C100CC30C2008531F625080014
:1001800050088600870114300106031DCD288F30EA
:10019000860023308700011608005008860087017A
:1001A00011300106031DDA288F30860023308700C6
:1001B000011708005008923124228031CE003030DF
:1001C000BE002330BF00CE30C00096316E26803195
:1001D000003A031D08003030C0002330C100CE308B
:1001E000C2000030C3008831722008005008023E6F
:1001F00086008701010803193F29500886008701FE
:1002000012300106031D0A298F3086002330870033
:100210008110080050088600870114300106031D74
:1002200017298F30860023308700011008005008FE
:100230008600870111300106031D24298F308600B6
:1002400023308700011108005008860087015930CB
:100250000106031D31298F3086002330870081126B
:1002600008005008923124228031CD003030C00087
:100270002330C100CD30C2008531F625080050087A
:1002800086008701FA300106031D6E299E319926EA
:100290008031ED3A031D080090308600233087003E
:1002A000010C890C01392100C900903086002330EF
:1002B0008700010C0139CA000230CA35890B5D295B
:1002C00090308600233087000108013909074A046D
:1002D0004904CB004B089131B0210800500886003A
:1002E0008701FC30010603190800500886008701C9
:1002F000010A03190800500886008701AA30010688
:100300000319080050088600870112300106031DFA
:100310008F298F3086002330870081140800500811
:100320008600870114300106031D9C298F3086004A
:10033000233087000114080050088600870111301F
:100340000106031DA9298F3086002330870001157F
:10035000080050088600870159300106031DB629A0
:100360008F308600233087008116080050089231B4
:1003700024228031CF003030BE002330BF00CF3088
:10038000C00096316E268031003A031D08003030DF
:10039000C0002330C100CF30C2000030C30088311C
:1003A0007220080020004203031DE82940081F397D
:1003B000003A031DE8292100EB1703302000410615
:1003C000031DE62901302200DE00E8292200DE01BB
:1003D00020004208031D080040081F39023A031D8F
:1003E000080044080F39003A0319080044080F397F
:1003F000D600023056020318080020306C06031D98
:1004000008002100EB172000C41B152A44080F39EF
:100410000907303E860001308700403FDB00413F46
:10042000DC0044080F393A3E222A44080F390907F4
:10043000613E86008701403FDB00413FDC0044080D
:100440000F393C3E8600013087000108DA005A1857
:10045000332AFB30D600FF30D7005B085605DB009F
:100460005C085705382A04305B04DB0000305C046C
:10047000DC00C41B472A44080F390907303E8600B8
:10048000013087005B08C03F5C08C13F512A440827
:100490000F390907613E860087015B08C03F5C0891
:1004A000C13F03304106031D732A5B0886005C08C8
:1004B0008700811F682AC41B612A44080F393A3E0D
:1004C000642A44080F393C3E8600013087008114BD
:1004D0005B0886005C08870001155B0886005C08E5
:1004E00087008117080004305B06DB0000305C06E3
:1004F000DC005B0886005C088700811F9C2A7F3037
:10050000D6005B0886005C088700560881055B08FA
:1005100086005C08870001170530D0000030D1004C
:100520005C08D3005B08D2000230D4000030D50054
:10053000943134248131A12A5B0886005C0887004D
:100540000117043020005B06DB0000305C06DC0095
:10055000DA18B02A5B0886005C088700811FD52A5C
:10056000C41BB62A44080F393A3EB92A44080F3949
:100570003C3E86000130870081103B30D6005B088E
:1005800086005C088700560881050530D0000030E1
:10059000D1005C08D3005B08D2000230D4000030E8
:1005A000D500943134248131DD2A3B30D6005B08FC
:1005B00086005C08870056088105200044080F3932
:1005C000983ED600D7010E30D73D5608D8005708C0
:1005D000D900FE30D6005808860059088700560812
:1005E00081050800D30053088031872082312030F4
:1005F00020006C02031C08003D008E18080020003B
:10060000660822003706031D092B2000650822001A
:1006100036060319142B200066082200B7002000BC
:1006200065082200B600FF2A340836022100D500F2
:1006300022003508373B2100D600D61F2F2B220081
:10064000340836022100D10022003508373B210052
:10065000D2005108FF3ED5007F30523DD6005608EB
:10066000803AD10093305102031D382B8930550256
:10067000031C412B22003608783EB400EC30373D95
:10068000B5002C30860023308700160001040319C2
:10069000582B2C30860023308700403F2100D100AA
:1006A000413FD2005108860052088700811BD12BA0
:1006B00000302100A800A9000830AA000030AB00DB
:1006C000A0309031B42082313030C0002330C100DE
:1006D000A230C2009631D02682318F30860023307E
:1006E00087000108A000D401D7015708A03E86006A
:1006F00087015708A03E84000130850000080106EC
:100700000319852BD401D40A8D2B0130D100510857
:10071000D70708305702031C752B2200380839040C
:100720000319A62B21005608803AD100220039086F
:10073000803A21005102031DA12B2200380821001C
:100740005502031CA62B2100D401D40A2100540316
:10075000031DD12BA030860000308700A03084001C
:10076000013085000830D10016001A00D10BB42BDF
:10077000A801A80AA030A9000030AA000830AB00E8
:1007800001308C31F02482312C30860023308700F8
:100790002808C03F2908C13F22003708B5003608A5
:1007A000B4002C308600233087004231160001044B
:1007B0000319EA2B2C308600233087004231403F5A
:1007C0002100D100413FD200510886005208870025
:1007D000811B08009F31132782312100A80120309E
:1007E000A9000130AA00AB01AB0A01308C31F02422
:1007F0002C3086002330870042312808C03F29086A
:10080000C13F0800003400340034003400340034A8
:100810000034003400340034003400340034003438
:10082000003400340034E63400340034E43400345E
:100830000034003400340034003400340034003418
:100840000034E33400340034003400340034003425
:100850000034E73400340034003400340034003411
:100860000034653400340034003400340034003483
:1008700000340034003400340034003400340034D8
:1008800000340034003400340034003400340034C8
:100890000034003400340034543400340034003464
:1008A00000340034003400340034003400340034A8
:1008B0000034003400340034583400340034003440
:1008C0000034003400340034003400340034003488
:1008D0000034003400344D34003450344A34003491
:1008E0000034003449344C34513400344F345234E1
:1008F00000340034003400344E34003446344B3479
:100900000034003400340034003400340034003447
:100910000034003400340034003400340034003437
:100920000034003400340034003400340034003427
:100930000034003400340034003400340034003417
:100940000034003400340034003400340034003407
:1009500000340034003400340034003400340034F7
:1009600000340034003400340034003400340034E7
:1009700000340034003400340034003400340034D7
:1009800000340034003400340034003400340034C7
:1009900000340034003400340034003400340034B7
:1009A00000340034003400340034003400340034A7
:1009B0000034003400340034003400340034003497
:1009C0000034003400340034003400340034003487
:1009D0000034003400340034003400340034003477
:1009E0000034003400340034003400340034003467
:1009F0000034003400340034003400340034003457
:100A000000344B080319442D2000690803192C2DCC
:100A10000930690203182C2D6908FF3EFC002200F2
:100A20004C082000DC007C0A162DDC36890B152DC5
:100A30005C1C1C2D01301D2D0030FD007D080319AC
:100A40002A2D22008C1601302000DC005C082200D8
:100A5000CA073B2D2200332D09306906031D352DB1
:100A600022004A1C3A2D8C123B2D0A306906031DC8
:100A70003B2D21008C1601302000DC005C08E907CA
:100A800001302200CB0208009E31F62685312C0869
:100A900070022000DC0022002D08713B2000DD00E8
:100AA00022002E08723B2000DE0022002F08733B3C
:100AB0002000DF005F08031D672D5E08031D672D02
:100AC0005D08031D672DFA305C02031CD32D013035
:100AD0002200D300D32D2200D201D101E601023041
:100AE000A92D00308C1A01302200CF004F082000C1
:100AF000DC002200520A20007E2DDC35890B7D2D82
:100B00005C08DD005D082200E6044F082000DC00E0
:100B10005C082200D10701302000DC005C082200C4
:100B2000D20708305206031D6F2D0330A92D003067
:100B30008C1A01302200CF004F082000DC005C0836
:100B40002200D107511CA62D0130A72D0030D00066
:100B50000430D300EB2DE03022006606031DB32DD8
:100B60000130CE00D02DF0306606031DBA2D0130C5
:100B7000CD00D02D4D08E8004E08E70050080319BD
:100B8000CD2D91302000D5002330D6006630D7001F
:100B90000130D80088310A2085312200CD01CE01F4
:100BA0002200D301EB2D220053082000DC00DD01E0
:100BB0005D08003A0319DD2DD02D5C08013A0319B8
:100BC0006B2D033A0319712D013A0319972D073A3A
:100BD0000319AB2DD02D9E31F6267308AF00720895
:100BE000AE007108AD007008AC0008004108A90013
:100BF0004008A8009F31C527853128082904031D16
:100C0000080040085C3E86000030413D8700010836
:100C1000C70040085D3E86000030413D8700010866
:100C20004706031908004708C300C4014308AF0082
:100C30004408B00040085A3E86000030413D87001D
:100C4000403FB100413FB20091315F2185312F0813
:100C50004007C5003008413DC6004508B5004608BC
:100C6000B6004208B70040085A3E86000030413DB9
:100C70008700403FB800413FB90093318923853157
:100C800035083604031DDA2E4708C80040085D3ECB
:100C900086000030413D8700010848060319B02E48
:100CA0004808C300C4014308AF004408B00040082E
:100CB0005A3E86000030413D8700403FB100413F31
:100CC000B20091315F2185312F084007B50030080F
:100CD000413DB6004808013EAA000030031801302B
:100CE000AB000F30A8000030A9009431F524853105
:100CF0002908B0002808AF0040085A3E860000309E
:100D0000413D8700403FB100413FB20091315F213A
:100D100085312F084007C5003008413DC600450811
:100D2000B7004608B80040085A3E86000030413DF2
:100D30008700403FB900413FBA00933133238531EA
:100D40000F30A8000030A9004808013EAA0000307A
:100D500003180130AB009431F52485312808452E65
:100D60000F30A8000030A90040085D3E860000302A
:100D7000413D870001080E3EAA00003003180130F3
:100D8000AB009431F5242808C30040085D3EC40040
:100D90000030413DC50044088600450887004308EF
:100DA000810040085E3E86000030413D87000130F2
:100DB000810208000F30A8000030A9004708013E5A
:100DC000AA00003003180130AB009431F5248531BE
:100DD0002808082E6C03031DF62E3D008E1AF62EF1
:100DE00090011214121602302000EC003D00101980
:100DF000121D032FFB302000DF005F083D0090052F
:100E00009131E82186313D008E1C092F20001211FE
:100E100008001018121C192F8D31FE258631210073
:100E2000121504302000EC00FE30DF005F083D00AA
:100E30009005101A121E1F2F9031F92086313D00A7
:100E4000101F472F121F332F73302000D0000030A7
:100E5000D1000030D200D3000130D4000030D500E2
:100E6000943134248631BF302000DF005F083D001C
:100E700090059031CA2086315A080319412F01305C
:100E8000DA025A08031D472F8A31182286313D00A5
:100E9000901A921E4E2F9231A32286319018921CE6
:100EA000622FFF302000D0007F30D1000030D20010
:100EB000D3000130D4000030D50094313424863181
:100EC0003D009301043020006C020318692F1211B9
:100ED00008003D00921DBA2F2000E001B72F0F0837
:100EE0002000ED006D0CDF00DF0C5F0C0F392200DD
:100EF000DC00F7302000DF005F083D009005200097
:100F00006D19862F22005C083A3E892F22005C086A
:100F10003C3E860001308700010801392000DF00D7
:100F20000130DF0601085F06FE395F0681002200FE
:100F30005C08031D9F2F95313A258631AE2F723004
:100F40002000D0000030D1006D30D2000030D3003E
:100F50000030D400D5009431342486310130200093
:100F6000DF005F08E007043060020318BA2F3D007D
:100F700090196F2F20001211080021009112C0302B
:100F8000A8001330A9009E31DE26873121001112FE
:100F90000530A8001230A9009E31E62687310830BE
:100FA00023009F0080309D0024309E00E1309B0094
:100FB00004309C0002302100A8000030A9009E31BE
:100FC000CE26873185302100A8001030A9009E313F
:100FD000D626873196302100A8001E30A9009E3108
:100FE000C626E101E501E40108302100EF00EE0131
:100FF0002200E301E2012100911608000800080028
:10100000903086002330870020088100ED30913138
:101010002A2108005608F1005508F0009F31D82712
:10102000883170087104031D080055085D3E860074
:101030000030563D87000108D900DA015908F00058
:101040005A08F10055085A3E86000030563D870088
:10105000403FF200413FF300913144218831700854
:101060005507F6007108563DF7005808F900570873
:10107000F80055085A3E86000030563D8700403F34
:10108000FA00413FFB0093310D2388310F30F0000F
:101090000030F10055085D3E86000030563D870067
:1010A0000108013EF200003003180130F3009431D2
:1010B000B0247008D90055085D3EDA000030563D76
:1010C000DB005A0886005B08870059088100013060
:1010D000D90055085E3E86000030563D870059080D
:1010E000810708004108A9004008A8009F31EC27AB
:1010F000883128082904031D080040085D3E860049
:101100000030413D87000108C400C5014408AF001C
:101110004508B00040085A3E86000030413D870037
:10112000403FB100413FB20091315F2188312F082B
:101130004007B5003008413DB6004308B8004208FA
:10114000B70040085A3E86000030413D8700403FCE
:10115000B900413FBA009331332388310F30A800E2
:101160000030A90040085D3E86000030413D870008
:101170000108013EAA00003003180130AB00943191
:10118000F5242808C40040085D3EC5000030413DFC
:10119000C6004508860046088700440881000130E3
:1011A000C40040085E3E86000030413D8700440890
:1011B000810708002000400E890C0339003A031D06
:1011C00008001F292100EB1708302000EC00080060
:1011D0008A31FE2208008931AC2108006F302100DD
:1011E000E9000030EA006B140130EC00EB17080056
:1011F0009631192608008131D221080044086E3E3C
:101200002100E900EA016B140130EC00EB17080043
:101210002100EB17200044086E3E8600870142083B
:10122000810008000230D0000030D1000030D20030
:10123000D3000030D400D500943134240800410894
:10124000003A0319F828013A0319FB28023A031956
:10125000FB28063A0319E228033A0319E828013A61
:10126000031912290F3A0319EE28013A0319EB2842
:10127000033A0319FE28013A03190829073A03190A
:101280004229422908004108A9004008A8009F31CE
:10129000C527893128082904031D08004208B50024
:1012A000B60140085C3E86000030413D87000108E1
:1012B000C300C4014308AF004408B00040085A3ED0
:1012C00086000030413D8700403FB100413FB20001
:1012D00091315F2189312F084007C5003008413D19
:1012E000C6004508B7004608B80040085A3E8600C8
:1012F0000030413D8700403FB900413FBA00933183
:10130000332389310F30A8000030A90040085C3E2B
:1013100086000030413D87000108013EAA000030F0
:1013200003180130AB009431F5242808C3004008AD
:101330005C3EC4000030413DC500440886004508BD
:1013400087004308810040085E3E86000030413D32
:1013500087000130810208002100EB170E302000C9
:10136000D7009930D600D801560886005708870064
:1013700081010130D6070030D73D0130FD007D08E6
:10138000D80758080319B4290030F000F1002030C4
:10139000F2000030F300203090319E2089313D0072
:1013A0000E172000D90159083C3E86000130870005
:1013B000810159083A3E86000130870081010130E1
:1013C000FD007D08D90702305902031CD3290030E3
:1013D000F000F1000130F2000030F3006E30903187
:1013E0009E2089313D000E1328302000E10000309E
:1013F000E2002030EB006B08E700E8014208EF0054
:101400006F08031D062A1030EC0008000130D000E0
:101410000030D1006F30D2000030D3000130D40052
:101420000030D5009431342420302000EC00080036
:1014300022005808031D08000130D8005708031D7A
:1014400008000130D700023020006A06031D3A2A46
:1014500061088600620887004131810161088600C9
:1014600062088700483081006108860062088700B2
:10147000811708006A03031D08002200DB01200019
:101480006B0A86008701083081004030F000003090
:10149000F100FF307005F2007F307105F3006B083A
:1014A000023E860087017208C03F7308C13F6B0887
:1014B00086008701043081006B0886008701811750
:1014C00001302200DB0020006708013EF000003000
:1014D000683DF100700886007108870008308100BF
:1014E0004030F0000030F100FF307005F2007F3036
:1014F0007105F300670886006808870042317208AA
:10150000C03F7308C13F67088600680887008030C5
:1015100081000800903189208A319F311E278A314D
:10152000913195218A313D302100D900E130D80038
:101530003F30890B992AD80B992AD90B992A003266
:101540008B170B17230044082100E60023004508F1
:101550002100E700230046082100E800C73086008C
:1015600001308700DA308400003085000630D80072
:1015700016001A00D80BB82AE6309131CC218A31F6
:10158000E40064080319C72AE630E500C82AE5012B
:1015900065080319F92A650A860087010108031DF9
:1015A000D32A2030D42A6530E0000030E100600802
:1015B000DA006508023E860087010108031DE22A61
:1015C0002030E32A6230E2000030E3006208DB00F2
:1015D000DC30AC000230AD006508860087010108F0
:1015E0009231E8228A310630AA00DA3091317A212C
:1015F0008A3165088231F2228A31BC2A803020008B
:101600004006031D0800C0302100EB006A2B9C300F
:101610002100E9009830EA000030ED001230EC00C3
:1016200008004208031D402B4208F000F101F0358C
:10163000F10DC630700784001830713D8038850088
:10164000003F2100E900013FEA006A08F100690853
:10165000F00002307007840071080318710A8500D9
:101660000008EC006A08F1006908F0000330700718
:10167000840071080318710A85000008ED00080055
:101680002100EB010800033042020318642B4208DA
:10169000F000F101F035F10DBC3070078400183016
:1016A000713D80388500003F2100E900013FEA00DC
:1016B000690884006A0885000008F000F1017008DC
:1016C000EC007108ED0008002100EB01080021008A
:1016D000EB01080020004308013A0319072B033AE5
:1016E0000319112B013A0319432B672B08006108DA
:1016F0008600620887000030011B0130F7000430CB
:101700006106E10000306206E20008306C06031D4D
:10171000952B42087F393D00960016080319922B3D
:101720001030932B04302000EC006A03031DDD2BE6
:101730004830F3000030F400FF307305F5007F30CF
:101740007405F6006108860062088700423175085A
:10175000C03F7608C13F973132278B3102302200DB
:101760006006031DC02B2000610886006208870008
:101770000430810061088600620887008117080034
:101780007708031DD02B20006108860062088700BF
:1017900048308100610886006208870081170800D0
:1017A0002000610886006208870008308100610817
:1017B000860062088700811708002200A31FEF2B14
:1017C000260827040319EE2B0530213E8600013040
:1017D0008700413F8A00403F0A008B31A31320005D
:1017E000EA01080040081F39013A031D08004408B7
:1017F000031D0800063041060319172C222C6F0325
:10180000031D222C85302100E9009830EA000030C9
:10181000ED000930132C00302100E9009830EA0077
:101820000030ED003F30EC00C030EB00222C4308CC
:10183000213A0319FF2B033A03190B2C013A031920
:10184000222C222C2000400E890C0339013A031D62
:1018500008005B2C9F31682708006A302100E900EE
:101860000130EA000030ED000130EC00C130EB0047
:10187000080080302100EB00200043082200EA002D
:101880006A08F000200042089F315B270800693099
:101890002100E9000130EA000030ED000130EC00E9
:1018A0008130EB00080080302100EB00200042086E
:1018B0002200E90008004108013A03196F2C033A9D
:1018C00003192D2C013A0319472C0A3A03192A2C23
:1018D000033A0319392C013A0319532C6F2C0800D1
:1018E000F800700803197C2C7835613E860087016A
:1018F000403FF900413F842C7835303E860001306E
:101900008700403FF900413FFA0079087A04031D3F
:101910008C2CF001F1010800FF307105F4007F30DC
:101920007205F500790886007A088700423174084C
:10193000C03F7508C13F7908013EF40000307A3D90
:10194000F500740886007508870073088100403030
:10195000F400790886007A08870074088105790800
:1019600086007A0887008115790886007A08870042
:10197000811770080319D32C7835613E86008701E2
:10198000403FF400413FF50004307406F60000309B
:101990007506F7007835613E860087017608C03FFE
:1019A0007708C13FEB2C7835303E86000130870048
:1019B000403FF400413FF50004307406F60000306B
:1019C0007506F7007835303E8600013087007608CE
:1019D000C03F7708C13F7A08F1007908F00008009D
:1019E000B00028080319FC2C3035613E86008701C1
:1019F000403FB100413F042D3035303E860001307C
:101A00008700403FB100413FB20031083204031D5E
:101A10000C2DA801A9010800FF302905AC007F307A
:101A20002A05AD00310886003208870042312C08B3
:101A3000C03F2D08C13F3108013EAC000030323DAF
:101A4000AD002C0886002D0887002B08810040304F
:101A5000AC0031088600320887002C088105310867
:101A60008600320887008115310886003208870019
:101A7000811728080319532D3035613E86008701F0
:101A8000403FAC00413FAD0004302C06AE000030BA
:101A90002D06AF003035613E860087012E08C03F1D
:101AA0002F08C13F6B2D3035303E86000130870056
:101AB000403FAC00413FAD0004302C06AE0000308A
:101AC0002D06AF003035303E8600013087002E08ED
:101AD000C03F2F08C13F3208A9003108A800080004
:101AE0003D000E122100EB1BBC2D2200A31F852DF3
:101AF00002302000EA0022005508031D812D973195
:101B000099272200D701D801080020006708013E6C
:101B1000F7000030683DF8007708860078088700F5
:101B2000083081004030F7000030F800FF307705C2
:101B3000F9007F307805FA0067088600680887009A
:101B400042317908C03F7A08C13F670886006808BB
:101B500087000C30810067088600680887008117BD
:101B600061088600620887000430810061088600F1
:101B700062088700811708002000C01FD12D0130A6
:101B8000EA0022005608031DC82D973199278D3190
:101B90002200D701D8015908031D08008A311822F4
:101BA00008000230EA006708013EF7000030683D97
:101BB000F8007708860078088700083081004030F8
:101BC000F7000030F800FF307705F9007F30780526
:101BD000FA00670886006808870042317908C03F2C
:101BE0007A08C13F670886006808870004308100D2
:101BF00067088600680887008117C82D2100121128
:101C00003D009301900198010E30F5009930F400E9
:101C1000F601740886007508870081010130F40719
:101C20000030F53D0130F0007008F6077608031922
:101C3000092E163091009F3097007B309200F701FB
:101C40007708F0000130F035FF3E031D232E70357C
:101C5000203E860087010030C03F0030C13FC23FB8
:101C6000C33F0130F0007008F70708307702031C0B
:101C7000202E0E1796010E120E13F730F00070088A
:101C800090052100EB012200A301A401A5013D0064
:101C900090193D2E01302200D8000130D700D60126
:101CA000D501DD01F7017735613E860087010030FF
:101CB000C03FC13F7735303E86000130870000309D
:101CC000C03FC13F77083C3E86000130870081015C
:101CD00077083A3E86000130870081010130F0002C
:101CE0007008F70702307702031C532E28302000BB
:101CF000E1000030E20016303D0098004030F00076
:101D00000030F100FF307005F2007F307105F30004
:101D100072082000A2007308A3000830A10004305C
:101D2000A000A017EF0100302300C3000030C20064
:101D30000030C1000030C0002200D4012000EC01BE
:101D4000080012113D009301900198010E3021000E
:101D5000AD009930AC00AE012C0886002D0887003C
:101D600081010130AC070030AD3D0130A8002808EA
:101D7000AE072E080319AC2E16303D0091009F309F
:101D800097007B3092002100AF012F08A80001309E
:101D9000A835FF3E031DC82E2835203E860087014A
:101DA0000030C03F0030C13FC23FC33F0130A800F8
:101DB0002808AF0708302F02031CC52E3D000E1760
:101DC00096010E120E13F7302100A80028083D00DE
:101DD00090052100EB012200A301A401A5013D0013
:101DE0009019E32E01302200D8000130D700D6012F
:101DF000D501DD012100AF012F35613E860087014D
:101E00000030C03FC13F2F35303E86000130870093
:101E10000030C03FC13F2F083C3E860001308700A4
:101E200081012F083A3E8600013087008101013090
:101E3000A8002808AF0702302F02031CFC2E283010
:101E40002000E1000030E20016303D0098004030F4
:101E50002100A8000030A900FF302805AA007F302B
:101E60002905AB002A082000A20021002B08200031
:101E7000A3000830A1000430A000A017EF0100303B
:101E80002300C3000030C2000030C1000030C00099
:101E90002200D4012000EC0108006B0886008701B5
:101EA000413FF9007908F400F50175082200250288
:101EB000031D5C2F740824020318602F2408F90006
:101EC0007908F400F5017408A4027508A53BF8012F
:101ED0007908780203187E2F210886008701780888
:101EE000483E84008501000881000130F400740838
:101EF000A1070130F4007408F807682F24082504AE
:101F00000319BF2F20006708013EF4000030683D30
:101F1000F500740886007508870008308100483095
:101F2000F4000030F500FF307405F6007F307505D1
:101F3000F700670886006808870042317608C03FCE
:101F40007708C13F6B0886008701011BB32F670824
:101F500086006808870048308100670886006808A6
:101F60008700811708006708860068088700083026
:101F70008100670886006808870081170800200034
:101F80006708013EF4000030683DF50074088600E3
:101F900075088700083081004030F4000030F500FB
:101FA000FF307405F6007F307505F700670886007E
:101FB0006808870042317608C03F7708C13F67084C
:101FC000860068088700043081006708860068087A
:101FD000870081172200260827040319F92F0530EE
:101FE000213E860001308700413F8A00403F0A00C1
:101FF0008F31A3135908031D08008A3118220800E5
:102000000034423400343E343C343A343B344534BA
:102010000034433441343F343D342B3435340034C0
:102020000034E234E1340034E03414341E3400343B
:10203000003400341D34163404341A341F34003490
:10204000003406341B34073408342134203400347F
:1020500000342C3419340934173415342234003444
:102060000034113405340B340A341C342334003466
:102070000034003410340D34183424342534003442
:10208000003436340E340C34123427342634003401
:102090000034373438340F34333413342D340034AF
:1020A00000340034343400342F342E3400340034FF
:1020B0003934E534283430340034313400340034D9
:1020C0000034003400340034003400342A34003446
:1020D00000341E34003421342434003400340034FD
:1020E000273437341F3422342334253429345334ED
:1020F00044342E3420342D34253426340034003436
:082100000034003400344034C7
:10210A0023001D121D1608009331592390319F3167
:10211A00752790319E319C2690319F31B42790319A
:10212A008731BD2790318E31A1269031913111210D
:10213A000800F5007508F6000130F2020030F33BA2
:10214A00720A0319730A03190800760886008701C0
:10215A00700881000130F4007408F607A128AE0067
:10216A002E08AD000130AA020030AB3B2A0A03193F
:10217A002B0A031908002D08860087012808810008
:10218A000130AC002C08AD07B72801302300C00786
:10219A000030C13D0030C23D0030C33D22005D0821
:1021AA00031D08000130F0007008D4075408031D0D
:1021BA000800FF30D400080021006E08B03E8600F7
:1021CA00013087002300190881000130F0007008EF
:1021DA002100EE0708306E020318EE010130F0000C
:1021EA0070082200E20708001215EF30FD007D0892
:1021FA0090058E1401302200DD00D40175302000D4
:10220A00D0000030D1000030D200D3000030D4001A
:10221A00D5009431342408006C08031D08003D00E1
:10222A008E019201163091009F3097007B30920008
:10223A00210012150B178B173D008E1926298E15B2
:10224A00212901302000EC000800F0007008CC00C1
:10225A008B1321000C1222000C12F0300032890B71
:10226A00332921000C162000E9010C302200CB0092
:10227A00CA0121008C1222008C128B170800F4016B
:10228A00F501701C4C297208F4077308F53D0130FA
:10229A00F235F30D890B4D290130F136F00C890B1B
:1022AA00522970087104031D46297508F100740843
:1022BA00F0000800B301B4012F1C67293108B307E5
:1022CA003208B43D0130B135B20D890B68290130AD
:1022DA00B036AF0C890B6D292F083004031D612914
:1022EA003408B0003308AF000800AC00AD012A087A
:1022FA002D02031808009E31AF269131003A0319C6
:10230A0080292D082C07AB002B08860087010108BD
:10231A009231C52291310130AB002B08AD077C29DF
:10232A0091302100A8002330A9000330AA00003010
:10233A00AB009231832291310130A8000530A90007
:10234A009E31B626913182302100A8001F30A900A3
:10235A009E31BE2608002100A80028082200CC00D1
:10236A008B1321000C1222000C12F0300032890B60
:10237A00BB2921000C162000E9010C302200CB00F9
:10238A00CA0121008C1222008C128B17080021002E
:10239A00C7009130A8002330A9009F31C527913189
:1023AA0028082904031DE5299130C0002330C10003
:1023BA004708C200893143219131C801C80AE62978
:1023CA00C801480808002200DD0174302000D0004E
:1023DA000030D1000030D200D3000030D400D50044
:1023EA009431342491313D008E101211101D022AAD
:1023FA00FB30FD007D089005FB292200D40108006E
:10240A00083021006F020318222A22006408B83E0D
:10241A00860001308700010823009A000130F0008D
:10242A0070082200E407083064020318E40101304E
:10243A00F00070082100EF07080011120800A80038
:10244A00280A8600870101080319372A2808860006
:10245A0087010108023E840084300318013E85008A
:10246A00000808002808860087010108003E840049
:10247A0090300318013E850000080800FC00771D13
:10248A004B2AF0017C08943171249231F71C522AAC
:10249A00F001F00A7C08943171247C08983EF80017
:1024AA00F9010E30F93D7808FA007908FB007A083C
:1024BA0086007B08870077088100080070085A3E6A
:1024CA0086000030713D87007208C03F7308C13F23
:1024DA0070085C3E86000030713D870081017008FB
:1024EA005D3E86000030713D8700810170085E3EC6
:1024FA0086000030713D87008101080028085A3E95
:10250A0086000030293D87002A08C03F2B08C13FBA
:10251A0028085C3E86000030293D87008101280892
:10252A005D3E86000030293D8700810128085E3E15
:10253A0086000030293D870081010800181CC02A46
:10254A0020006B088600870180300106031DBE2A21
:10255A00610886006208870084300106031DBE2ACE
:10256A006B08860087010C3081006B0886008701A2
:10257A0081173D001810DF30F00070089005080040
:10258A00A9006F080319C62A111ACF2A290823009D
:10259A009A00E52A111222006508B83E8600013029
:1025AA0087002100290881000130A800280822009C
:1025BA00E507083065020318E50101302100EF0242
:1025CA00210011160800B00002302D02031C080079
:1025DA003008AE000430AE36890BF02A2E08B1005E
:1025EA00F030A80031089F31922792313007AF00AE
:1025FA002C088600870131089F31A3279231810078
:10260A002C0A860087012F089F31A3278100080022
:10261A007908D3007808D2007708D1007608D0006C
:10262A000130FA020030FB3B7A0A03197B0A0319CC
:10263A00080052088600530887000108D4000130B8
:10264A00D2070030D33D500886005108870054084D
:10265A0081000130D0070030D13D152B3808BE006B
:10266A003708BD003608BC003508BB000130B90286
:10267A000030BA3B390A03193A0A031908003D081F
:10268A0086003E0887000108BF000130BD07003000
:10269A00BE3D3B0886003C0887003F0881000130A8
:1026AA00BB070030BC3D3B2B22008C018D018E0103
:1026BA00303021008C0070308D00FF308E00CF301A
:1026CA0023008E008D018C0124008D0130308C0096
:1026DA002100951322009D0127001312931212164E
:1026EA0092161112911203302100A8000030A9009D
:1026FA009E31B6269331FF302100A8000730A90089
:10270A009E31BE268B1508003608BC003508BB0072
:10271A003708BD00A72B3D08860087013B088400C7
:10272A003C08850000080106031DAB2B0130B802E6
:10273A000030B93B0130BB070030BC3D0130BA0064
:10274A003A08BD0738083904031D902B38083904A4
:10275A00031DB22BB501B60108003B0886003C08F0
:10276A0087003D088400850100080102B500B60112
:10277A00031CB603080021006E08A83E860001303B
:10278A008700810123001D1DD72B21006E08A83E5A
:10279A008600013087008114220043088A0042081B
:1027AA000A00933123009D1CE72B21006E08A83EE6
:1027BA008600013087000115220041088A0040087E
:1027CA000A00933121006E08A83E86000130870076
:1027DA0001080319F72B22003F088A003E080A0065
:1027EA00933108009031E120080002306A06031D87
:1027FA00012C8F314D270800EA0122005B08031DD6
:10280A00322C20006708013EFA000030683DFB00C8
:10281A007A0886007B088700083081004030FA0079
:10282A000030FB00FF307A05FC007F307B05FD009D
:10283A00670886006808870042317C08C03F7D0827
:10284A00C13F67088600680887000C308100670866
:10285A0086006808870081170800DB010800492CF8
:10286A00650A7F30031966060319402C0130E50713
:10287A000030E63D0800E501E60108009531C9256A
:10288A0008008B31F22308005108003A0319512C31
:10289A007F3A03196B2C702C5008013A0319432C08
:1028AA00033A0319702C013A0319462C063A031904
:1028BA00702C773A0319702C013A0319352C073A10
:1028CA000319702C013A0319702C702C5008FF3A26
:1028DA000319702C702C0800F5002030F6007008DF
:1028EA00F1000130F135890B772C7508F2000130BF
:1028FA00F235FF3E031D7D2C72357107F30001305E
:10290A00F335FF3E031D852C7335F4007408F60772
:10291A0076088600870181137008031D9E2C753581
:10292A00303E8600013087007608C03F0030C13F44
:10293A00A62C7535613E860087017608C03F0030B7
:10294A00C13F76088600870101137608043E860097
:10295A00870101170800F601F31FBA2CF209F309DF
:10296A00F20A0319F30AF601F60AF11FC12CF0095B
:10297A00F109F00A0319F10A700871040319E82C25
:10298A00F501F50AF11BD32C0130F035F10D890B55
:10299A00CA2C0130F4007408F507C72C71087302B9
:1029AA00031DD92C70087202031CDF2C7008F20276
:1029BA007108F33B0130F136F00C890BE02C013041
:1029CA00F502031DD32C76080319F02CF209F3093A
:1029DA00F20A0319F30A7308F1007208F0000800FA
:1029EA00AE01AB1FFF2CAA09AB09AA0A0319AB0A4D
:1029FA00AE01AE0AA91F062DA809A909A80A03193A
:102A0A00A90A2808290403192D2DAD01AD0AA91B0D
:102A1A00182D0130A835A90D890B0F2D0130AC00F6
:102A2A002C08AD070C2D29082B02031D1E2D280882
:102A3A002A02031C242D2808AA022908AB3B0130CC
:102A4A00A936A80C890B252D0130AD02031D182DBE
:102A5A002E080319352DAA09AB09AA0A0319AB0ACC
:102A6A002B08A9002A08A80008002D30DA00200047
:102A7A006D08FD39031D772D6D363F39DE000130B3
:102A8A00DE35FF3E031D452D5E35203EEB006B080B
:102A9A00E700E80104306706E70000306806E8004E
:102AAA006B0886008701010C890C0F390D3A031D4A
:102ABA00742D4030F6000030F7006B08023E8600A5
:102ACA008701403FF800413FF9000830FA00003022
:102ADA00FB0093310D2395319531812508009331FF
:102AEA00FA230800FD306D05DE0004305E06031D82
:102AFA0008008B31772308002200E001D901D601B2
:102B0A00D501DB012000EA017F30DD006108860083
:102B1A00620887005D08810504306106E100003023
:102B2A006206E2007F30DD006108860062088700E5
:102B3A005D08810504306106E10000306206E200AA
:102B4A007F30DD0067088600680887005D08810518
:102B5A002100EB01EC01ED012200A301A401A50172
:102B6A008831DA20953103302000D0000030D100BE
:102B7A000030D200D3000030D400D5009431342480
:102B8A0095318D31702508003030F0002330F10086
:102B9A000130F2000030F3009231632295318F3018
:102BAA008600233087008101903086002330870019
:102BBA0081012C308600233087000030C03FC13F9E
:102BCA00FA302200B8000030B9002000660822005E
:102BDA003506031DF42D200065082200340603196A
:102BEA00FF2D200066082200B5002000650822009B
:102BFA00B400EA2D1E30F70001309231432295319C
:102C0A00F0012030F1000130F200F301F30A013043
:102C1A008C3170242C3086002330870042317008B2
:102C2A00C03F7108C13F08002000C801C901572EE2
:102C3A002100EB1722005E03031D632E2000C81437
:102C4A00632E2100EB17632E2100EB1720004408A6
:102C5A000F39003A0319632EC41B3E2E44080F395C
:102C6A000907303E860001308700403FF000413FAF
:102C7A00472E44080F390907613E86008701403F05
:102C8A00F000413FF1007008860071088700811F3B
:102C9A00632E7008860071088700011D632E0130BB
:102CAA00C800632E40081F39003A03191D2E013A45
:102CBA000319262E033A0319292E632E2100EB1F2E
:102CCA0008004830E9000030EA006B140230EC00DA
:102CDA0008003F08A9003E08A8009F31C527963181
:102CEA0028082904031DCE2E3E085C3E86000030CB
:102CFA003F3D87000108C5003E085D3E8600003062
:102D0A003F3D8700010845060319CE2E4508C1003C
:102D1A00C2014108AF004208B0003E085A3E860090
:102D2A0000303F3D8700403FB100413FB200913142
:102D3A005F2196312F083E07C30030083F3DC4008B
:102D4A004308B5004408B6004008B7003E085A3E9A
:102D5A00860000303F3D8700403FB800413FB90040
:102D6A0093318923963135083604031DBE2E01306E
:102D7A0008000F30A8000030A9004508013EAA004B
:102D8A00003003180130AB009431F524963128083D
:102D9A00802E0030080040085C3E86000030413D2D
:102DAA0087000108C700C80140085E3E860000305F
:102DBA00413D870001084802031808004808A80096
:102DCA0040085A3E86000030413D870001089F3185
:102DDA00922796314207B500B6014708C300C401DD
:102DEA004308AF004408B00040085A3E860000304D
:102DFA00413D8700403FB100413FB20091315F2120
:102E0A0096312F084007C5003008413DC6004508E5
:102E1A00B7004608B80040085A3E86000030413DD7
:102E2A008700403FB900413FBA00933133239631BE
:102E3A000F30A8000030A9004708013EAA00003060
:102E4A0003180130AB009431F52496312808C700E5
:102E5A000130C3004308C807D92E0830F2000030F9
:102E6A0021006D02083003196C020318492F6C08FF
:102E7A00F20022006008031D442F0130482F60032E
:102E8A00031D492F0230E0007208F000F1017008BA
:102E9A002100EC027108ED3B20006108013EF000C0
:102EAA000030623DF10070088600710887007208E0
:102EBA00810048302200DF0021006B1C7B2F952FF8
:102ECA0022005F08860087012100690884006A08D9
:102EDA008500000881000130E9070030EA3D013031
:102EEA00F00070082200DF070130F20272080319AD
:102EFA000800652F22005F08860087012100690803
:102F0A0084006A088500000881000130E907003062
:102F1A00EA3D0130F00070082200DF070130F202BA
:102F2A007208031908007F2FD601D501023020004C
:102F3A006A06031DCB2F6708013EF3000030683D87
:102F4A00F40073088600740887000830810048304E
:102F5A00F3000030F400FF307305F5007F3074058C
:102F6A00F600670886006808870042317508C03F86
:102F7A007608C13F670886006808870048308100E4
:102F8A0067088600680887008117080021006D0815
:102F9A0020004702031DD52F21006C08200046029D
:102FAA000318DE2F47082100ED0020004608210003
:102FBA00EC00973132274830F3000030F400FF303C
:102FCA007305F5007F307405F6002000610886005D
:102FDA006208870042317508C03F7608C13F610820
:102FEA00860062088700483081006108860062080E
:102FFA008700811708000534013409340634A134E6
:10300A000134053407341934E0342934E7341534EB
:10301A00003425340134753401349534083481344C
:10302A0002349534013475340834813403349534C8
:10303A00053475340134053408341934013429341B
:10304A00053491340234953401347534033491349F
:10305A000334953406347534083415340034253471
:10306A00653405340734193400342934653481341D
:10307A000034C034343403344D34003469340034F9
:10308A0063340034723400346F34003463340034EF
:10309A006834003469340034703400342034003425
:1030AA0054340034653400346334003468340034F2
:1030BA006E3400346F3400346C3400346F340034AE
:1030CA00673400347934003420340034493400340D
:1030DA006E340034633400342E340034093402343C
:1030EA0029340034013401340034C0343234093410
:1030FA00043400340034023403340134013400341B
:10310A0009342134113401340034013422343F3477
:10311A00003407340534813403340834003401346C
:10312A0007340534013403340834003401341234CA
:10313A000134003402340034003400340834D83402
:10314A000434553400340134003401340234003478
:10315A0001340E34033441340034543400343234EC
:10316A000034553400345334003442340034C23409
:10317A0098343F349834AE349834043403340934E0
:06318A0004347334983494
:103D2C009031E120080022004C0808001630970062
:103D3C00080020001C1508002034203420342034C6
:103D4C000D340A34200048082200A00088310020DD
:103D5C0008006F080319B42E013008000030080069
:103D6C0029082200EE00210028082200ED0008009E
:103D7C0029082200EC00210028082200EB00080092
:103D8C0029082200BF00210028082200BE000800DC
:103D9C0029082200C300210028082200C2000800C4
:103DAC0029082200C100210028082200C0000800B8
:103DBC0029082200C700210028082200C60008009C
:103DCC0029082200C900210028082200C800080088
:103DDC0029082200C500210028082200C400080080
:103DEC002B08F3002A08F2002908F1002808F0003B
:103DFC0008000130A8070030A93D0030AA3D003072
:103E0C00AB3D08002700131E0E2F9F3141279F3119
:103E1C00931E08009F314E270800903086002330F7
:103E2C008700220020088100ED309131B02108007C
:103E3C00FF302100A8001E30A9009E31EE269F31D4
:103E4C009E319F2608009110220044084504031956
:103E5C00080045088A0044080A009F3108006400E5
:103E6C00800101310130FE020030FF3B7F087E04EF
:103E7C0003190034362F22006D086E0403194B2FE2
:103E8C006E088A006D080A009F3127001312080083
:103E9C0022006B086C040319582F6C088A006B08FD
:103EAC000A009F31270093120800F3007308031DCA
:103EBC0008007008F100F20171082200B8007208C5
:103ECC00B900080048302200A1000030A5000830DD
:103EDC00A4001E30A700A830A600A3170800FC30D1
:103EEC00210099009801903027009B002200960138
:103EFC0021001A1B08007E2F5308031D08000130F7
:103F0C00D3009E31F6267308AF007208AE0071081C
:103F1C00AD007008AC000800AB00AA012B1C9A2F56
:103F2C002808A9002908AA070310A80D0310AB0C38
:103F3C002B08031D942F2A080800A8000A30280219
:103F4C000318AB2F2808303E080010302802031845
:103F5C00B22F2808373E0800583008005D3020008A
:103F6C009B009A01911021009114FE30A80007309B
:103F7C00A9009E31EE260F3020009C000800280876
:103F8C005E3E86000030293D87000108031DD02FBE
:103F9C000130D12F0030AA00AB012A08A8002B0851
:103FAC00A900080070085E3E86000030713D870055
:103FBC000F300106031DE42F0130E52F0030F20015
:103FCC00F3017208F0007308F100080028085E3E47
:103FDC0086000030293D87000F300106031DF82FA5
:103FEC000130F92F0030AA00AB012A08A8002B08D9
:043FFC00A900080010
:020000040001F9
:04000E00E439CF3FC3
:00000001FF
