:1000000080313D28080008007E1480318B190B1CBC
:100010000D289B31452380313B280B1F3B282100B5
:10002000121D19282000121D19288E313926803101
:100030003B282100111E26282000111E26282300FF
:100040005C088A005B080A0080313B282100911E71
:1000500033282000911E332823005A088A005908AB
:100060000A0080313B282100911C3B282000911C74
:100070003B289B3166237E10090080313F282C30BD
:10008000840023308500C430FE000030FF009B3127
:100090007223803161308400003085000F30FE0013
:1000A0000030FF009B31722380312100EB01EC0115
:1000B000ED01EE01EF0121308400013085002B308D
:1000C000FE000030FF009B3172238031A03084009D
:1000D000013085004930FE000030FF009B31722363
:1000E000803120308400023085003230FE00003044
:1000F000FF009B3172237E1020008B312B2BD00010
:10010000500803190800500A8600013087000108D2
:100110000319F4285008023E8600013087000108C8
:100120000319BC28500886000130870014300106EE
:10013000031DA0288F30860023308700011208009D
:10014000500886000130870011300106031DAE28DB
:100150008F308600233087000113080050089E313D
:1001600055268031CC003030C0002330C100CC3067
:10017000C2008F310C27080050088600013087002C
:1001800014300106031DCA288F30860023308700F3
:100190000116080050088600013087001130010662
:1001A000031DD8288F3086002330870001170800F0
:1001B00050089E3155268031CE003030BE002330AD
:1001C000BF00CE30C0009331EC238031003A031DD4
:1001D00008003030C0002330C100CE30C2000030F3
:1001E000C3009531E62508005008023E8600013024
:1001F0008700010803194229500886000130870052
:1002000012300106031D0A298F3086002330870033
:100210008110080050088600013087001430010664
:10022000031D18298F308600233087000110080035
:10023000500886000130870011300106031D262971
:100240008F30860023308700011108005008860097
:100250000130870059300106031D34298F30860094
:10026000233087008112080050089E3155268031C6
:10027000CD003030C0002330C100CD30C2008F31FE
:100280000C2708005008860001308700FA3001066C
:10029000031D72299A31D0228031ED3A031D0800E6
:1002A0009030860023308700010C890C0139210031
:1002B000C9009030860023308700010C0139CA0044
:1002C0000230CA35890B61299030860023308700BF
:1002D0000108013909074A044904CB004B089D3144
:1002E0003F2508005008860001308700FC300106D9
:1002F000031908005008860001308700010A03191D
:100300000800500886000130870012300106031DE6
:100310008F298F3086002330870081140800500811
:1003200086000130870014300106031D9D298F309F
:100330008600233087000114080050088600013031
:10034000870011300106031DAB298F308600233052
:1003500087000115080050088600013087005930D9
:100360000106031DB9298F308600233087008116CE
:100370000800500886000130870077300106031D11
:10038000D32990308600233087000310011C03140A
:100390000030093DC90090308600233087000108F5
:1003A0004906FE39092A5008860001308700583076
:1003B0000106031DEE2990308600233087000310CC
:1003C000811C03140030093DC900903086002330A1
:1003D0008700C90D01084906FD39092A5008860021
:1003E000013087007E300106031D0F2A9030860001
:1003F000233087000310011D03140030093DC9009C
:100400009030860023308700C90DC90D01084906C8
:10041000FB3949068100ED309D313F2580312100B7
:1004200050089E3155268031CF003030BE00233039
:10043000BF00CF30C0009331EC238031003A031D60
:1004400008003030C0002330C100CF30C20000307F
:10045000C3009531E625080020004203031D422A0F
:1004600040081F39003A031D422A2100ED170330CE
:1004700020004106031D402A01302200C400422A08
:100480002200C40120004208031D080040081F3953
:10049000023A031D080044080F39003A0319080006
:1004A00044080F39D60002305602031808002030E5
:1004B0006C06031D08002100ED172000C41B6F2AE5
:1004C00044080F390907283E860001308700403F65
:1004D000DB00413FDC0044080F39303E7C2A4408F1
:1004E0000F390907613E86008701403FDB00413F2D
:1004F000DC0044080F39323E8600013087000108D5
:10050000DA005A188D2AFB30D600FF30D7005B087E
:100510005605DB005C085705922A04305B04DB00BB
:1005200000305C04DC00C41BA12A44080F39090711
:10053000283E8600013087005B08C03F5C08C13F51
:10054000AB2A44080F390907613E860087015B0822
:10055000C03F5C08C13F03304106031DCD2A5B0844
:1005600086005C088700811FC22AC41BBB2A44087E
:100570000F39303EBE2A44080F39323E8600013022
:10058000870081145B0886005C08870001155B0802
:1005900086005C0887008117080004305B06DB00DA
:1005A00000305C06DC005B0886005C088700811F69
:1005B000F62A7F30D6005B0886005C088700560864
:1005C00081055B0886005C08870001170530D000B4
:1005D0000030D1005C08D3005B08D2000230D400A8
:1005E0000030D5009F31C3278231FB2A5B0886008B
:1005F0005C0887000117043020005B06DB00003038
:100600005C06DC00DA180A2B5B0886005C088700B1
:10061000811F2F2BC41B102B44080F39303E132B86
:1006200044080F39323E86000130870081103B308C
:10063000D6005B0886005C088700560881050530F7
:10064000D0000030D1005C08D3005B08D20002303B
:10065000D4000030D5009F31C3278231372B3B3087
:10066000D6005B0886005C088700560881052000DC
:1006700044080F39983ED600D7010E30D73D5608B2
:10068000D8005708D900FE30D6005808860059080F
:1006900087005608810508002100D30053088031E7
:1006A0007F208331203020006C02031C08003D00B5
:1006B0008E1808002000660822002F06031D642BF8
:1006C0002000650822002E0603196F2B2000660803
:1006D0002200AF00200065082200AE005A2B230044
:1006E0004D0822002E022100D50023004E082200D2
:1006F0002F3B2100D600D61F8F2B23004D08220050
:100700002E022100D10023004E0822002F3B2100A1
:10071000D2005108FF3ED5007F30523DD60056082A
:10072000803AD10093305102031D982B8930550235
:10073000031CA42B22002E08783E2300CD00EC30B1
:1007400022002F3D2300CE002C308600233087006E
:10075000160001040319BB2B2C30860023308700C0
:10076000403F2100D100413FD2005108860052088D
:100770008700811B3A2CA0302100A8000030A9007E
:100780000030AA00AB000830AC000030AD009C3156
:10079000A32483313030C0002330C100A230C20016
:1007A00094314E2483318F30860023308700010836
:1007B000A000D401D7015708A03E86008701570842
:1007C0002A3E840002308500000801060319EB2B45
:1007D000D401D40AF32B0130D1005108D7070830D7
:1007E0005702031CDB2B23004F08500403190C2C69
:1007F00021005608803AD10023005008803A210099
:100800005102031D072C23004F0821005502031C31
:100810000C2C2100D401D40A21005403031D3A2CCE
:10082000A0308600003087002A3084000230850026
:100830000830D10016001A00D10B1A2CA801A80A02
:10084000A030A9000030AA000830AB0001308A3186
:10085000AB2283312C308600233087002808C03F2C
:100860002908C13F22002F082300CE0022002E08B5
:100870002300CD002C308600233087004231160043
:1008800001040319532C2C30860023308700423199
:10089000403F2100D100413FD2005108860052085C
:1008A0008700811B08009B31502383312100A80160
:1008B0002030A9000130AA00AB01AB0A01308A3117
:1008C000AB222C3086002330870042312808C03FFD
:1008D0002908C13F080000340034003400340034DB
:1008E0000034003400340034003400340034003468
:1008F0000034003400340034E63400340034E4348E
:100900000034003400340034003400340034003447
:1009100000340034E3340034003400340034003454
:1009200000340034E7340034003400340034003440
:1009300000340034653400340034003400340034B2
:100940000034003400340034003400340034003407
:1009500000340034003400340034003400340034F7
:100960000034003400340034003454340034003493
:1009700000340034003400340034003400340034D7
:10098000003400340034003400345834003400346F
:1009900000340034003400340034003400340034B7
:1009A00000340034003400344D34003450344A34C0
:1009B00000340034003449344C34513400344F3462
:1009C000523400340034003400344E3400344634A1
:1009D0004B3400340034003400340034003400342C
:1009E0000034003400340034003400340034003467
:1009F0000034003400340034003400340034003457
:100A00000034003400340034003400340034003446
:100A10000034003400340034003400340034003436
:100A20000034003400340034003400340034003426
:100A30000034003400340034003400340034003416
:100A40000034003400340034003400340034003406
:100A500000340034003400340034003400340034F6
:100A600000340034003400340034003400340034E6
:100A700000340034003400340034003400340034D6
:100A800000340034003400340034003400340034C6
:100A900000340034003400340034003400340034B6
:100AA00000340034003400340034003400340034A6
:100AB0000034003400340034003400340034003496
:100AC0000034003400340034003400340034003486
:100AD00000340034D600480886008701403FCA0031
:100AE000413FCB004A0884004B0885001200253A9C
:100AF000031D402E480886008701013081074131DF
:100B00000318810A2200AC01AD0103100030031864
:100B10000130B400FF302300C900FF30CA002100BB
:100B2000D301A02D2200B4142100480886008701BB
:100B30000130810741310318810AA02DD301D30A66
:100B40005308031DB42D480886008701403FCA00A2
:100B5000413FCB004A0884004B0885000008303A2A
:100B60000319922D9E2DA02D4908B50048089331F8
:100B70003023853136082200AD00210035082200DF
:100B8000AC00AD1FC92D3414AC09AD09AC0A031972
:100B9000AD0A2100480886008701403FCA00413F56
:100BA000CB004A0884004B0885001200633A031DFD
:100BB000F62D48088600870101308107413103186E
:100BC000810A4908860001308700010884008501F8
:100BD000023081070008D2005208B0005608933155
:100BE0008B233108C9003008C80008004808860077
:100BF0008701403FD400413FD50054088400550888
:100C000085001200583A031D352E49088600013030
:100C1000870001088400850102308107003FCE0073
:100C2000013FCF005408013ECA000030553DCB00C3
:100C30004808860087014A08C03F4B08C13F2C2E58
:100C40004F08BF004E08BE005608973123273F08C3
:100C5000C9003E08C80008005408840055088500F3
:100C60000008583A0319202E352E480886008701BF
:100C70000130810741310318810AC801C901080008
:100C8000480886008701403FCA00413FCB004A0820
:100C900084004B0885000008CC00CD014C08A8005A
:100CA0004D08A9005608AA0092318D22210048085B
:100CB000860087010130810741310318810A013024
:100CC000C8000030C90008005E080319A82E2000E3
:100CD000690803198D2E0930690203188D2E6908E1
:100CE000FF3EFC00220035082000DC007C0A792E43
:100CF000DC36890B782E5C1C7F2E0130802E003074
:100D0000FD007D080319942E22008C16013020006E
:100D1000DC005C082300DD079F2E09306906031DF7
:100D2000992E23005D1C972E22008C129F2E2200EC
:100D30009E2E0A306906031D9F2E21008C1601305D
:100D40002000DC005C08E90701302300DE02080017
:100D50009B31312386313C0870022000DC002300E7
:100D60003D08713B2000DD0023003E08723B20005F
:100D7000DE0023003F08733B2000DF005F08031DF7
:100D8000CB2E5E08031DCB2E5D08031DCB2EFA3043
:100D90005C02031C3B2F01302200B9003B2F2200D4
:100DA000B801B7012300E5010230102F00308C1A82
:100DB00001302200B60036082000DC002200380A8C
:100DC0002000E32EDC35890BE22E5C08DD005D0897
:100DD0002300E504220036082000DC005C08220025
:100DE000B70701302000DC005C082200B80708309B
:100DF0003806031DD42E0330112F00308C1A013019
:100E00002200B60036082000DC005C082200B7078C
:100E1000371C0C2F01300D2F00302300E10004306F
:100E20002200B900532FE03023006506031D1B2F5D
:100E30000130E000382FF0306506031D222F01300D
:100E4000DF00382F5F08E7006008E600610803193B
:100E5000352F91302000D5002330D600E530D70063
:100E60000130D80095317E2586312300DF01E00175
:100E70002200B901532F220039082000DC00DD01D7
:100E80005D08003A0319452F382F5C08013A031911
:100E9000CF2E033A0319D62E013A0319FD2E073A35
:100EA0000319132F382F9B3131237308BF007208A9
:100EB000BE007108BD007008BC0008003D000E12A5
:100EC0002100ED1BAA2F2200A31F732F0230200048
:100ED000EA0022003B08031D6F2F953117252200E1
:100EE000BD01BE01080020006708013EF700003088
:100EF000683DF80077088600780887000830810090
:100F00004030F7000030F800FF307705F9007F30FF
:100F10007805FA006708860068088700423179087A
:100F2000C03F7A08C13F67088600680887000C3018
:100F300081006708860068088700811761088600BD
:100F4000620887000430810061088600620887001B
:100F5000811708002000C01FBF2F0130EA002200C7
:100F60003C08031DB62F9531172587312200BD019E
:100F7000BE013F08031D080097318E27080002308C
:100F8000EA006708013EF7000030683DF800770886
:100F9000860078088700083081004030F700003074
:100FA000F800FF307705F9007F307805FA00670810
:100FB00086006808870042317908C03F7A08C13F3F
:100FC000670886006808870004308100670886008B
:100FD000680887008117B62F28085E3E860000301B
:100FE000293D87000F300106031DF82F0130F92F2E
:100FF0000030AA00AB012A08A8002B08A9000800AD
:101000002D30C00020006E08FD39031D3D286E36CE
:101010003F39DE000130DE35FF3E031D0B285E3513
:10102000203EEB006B08E700E80104306706E700AC
:1010300000306806E8006B0886008701010C890C07
:101040000F390D3A031D3A284030F6000030F70002
:101050006B08023E86008701403FF800413FF900DF
:101060000830FA000030FB009E319C268831913117
:10107000FA2108009F3189270800FD306E05DE0047
:1010800004305E06031D080089313221080021006A
:10109000ED170E302000D7009930D600D801560841
:1010A00086005708870081010130D6070030D73D00
:1010B0000130FD007D08D807580803194F2820305B
:1010C000F0000030F1000030F200F3002030F400B6
:1010D0000030F5009C31732488313D000E1720004C
:1010E000D9015908323E8600013087008101590834
:1010F000303E86000130870081010130FD007D080F
:10110000D90702305902031C71284B30F00001301E
:10111000F1000030F200F3000130F4000030F5007F
:101120009C31732488313D000E1328302000E100EB
:101130000030E2002030EB006B08E700E8014208D5
:10114000EF006F08031DA7281030EC0008000130E5
:10115000D0000030D1006F30D2000030D300013019
:10116000D4000030D5009F31C32720302000EC0090
:101170000800803020004006031D0800C030210018
:10118000ED002529B8302100EB009830EC0000304C
:10119000EF001230EE0008004208031DFB28420851
:1011A000F000F101F035F10DDD30700784001830EA
:1011B000713D80388500003F2100EB00013FEC00CD
:1011C0006C08F1006B08F0000230700784007108B1
:1011D0000318710A85000008EE006C08F1006B0826
:1011E000F00003307007840071080318710A85004D
:1011F0000008EF0008002100ED0108000330420262
:1012000003181F294208F000F101F035F10DD33029
:10121000700784001830713D80388500003F210040
:10122000EB00013FEC006B0884006C0885000008AF
:10123000F000F1017008EE007108EF0008002100D5
:10124000ED0108002100ED01080020004308013AEB
:101250000319C228033A0319CC28013A0319FE28BE
:101260002229080061088600620887000030011BFF
:101270000130F70004306106E10000306206E20050
:1012800008306C06031D502942087F393D00960046
:10129000160803194D2910304E2904302000EC00A7
:1012A0006A03031D98294830F3000030F400FF3032
:1012B0007305F5007F307405F6006108860062084A
:1012C000870042317508C03F7608C13F9431B02491
:1012D0008931023022004606031D7B292000610867
:1012E0008600620887000430810061088600620879
:1012F0008700811708007708031D8B2920006108EB
:101300008600620887004830810061088600620814
:1013100087008117080020006108860062088700A6
:101320000830810061088600620887008117080084
:101330002200A31FAA29260827040319A92905307A
:10134000213E860001308700413F8A00403F0A006D
:101350008931A3132000EA01080040081F39013A2F
:10136000031D08004408031D080006304106031948
:10137000D229DD296F03031DDD2985302100EB0013
:101380009830EC000030EF000930CE290030210009
:10139000EB009830EC000030EF003F30EE00C03042
:1013A000ED00DD294308213A0319BA29033A03194C
:1013B000C629013A0319DD29DD292000400E890CD8
:1013C0000339013A031D0800162A9B31A5230800A2
:1013D0004A302100EB000130EC000030EF0001301A
:1013E000EE00C130ED00080080302100ED0020004B
:1013F00043082200CA004A08F000200042089B313E
:1014000098230800E8302100EB000130EC000030A8
:10141000EF000130EE008130ED0008008030210047
:10142000ED00200042082300E80008004108013ACE
:1014300003192A2A033A0319E829013A0319022A4F
:101440000A3A0319E529033A0319F429013A031961
:101450000E2A2A2A0800F80070080319372A78355E
:10146000613E86008701403FF900413F3F2A7835C1
:10147000283E860001308700403FF900413FFA00D6
:1014800079087A04031D472AF001F1010800FF30B2
:101490007105F4007F307205F500790886007A083E
:1014A000870042317408C03F7508C13F7908013E8A
:1014B000F40000307A3DF500740886007508870056
:1014C000730881004030F400790886007A088700AC
:1014D00074088105790886007A08870081157908E3
:1014E00086007A0887008117700803198E2A7835DC
:1014F000613E86008701403FF400413FF500043023
:101500007406F60000307506F7007835613E8600F7
:1015100087017608C03F7708C13FA62A7835283E64
:10152000860001308700403FF400413FF500043061
:101530007406F60000307506F7007835283E860000
:10154000013087007608C03F7708C13F7A08F10074
:101550007908F0000800B00028080319B72A3035D0
:10156000613E86008701403FB100413FBF2A3035D0
:10157000283E860001308700403FB100413FB20065
:1015800031083204031DC72AA801A9010800FF3051
:101590002905AC007F302A05AD00310886003208ED
:1015A000870042312C08C03F2D08C13F3108013E61
:1015B000AC000030323DAD002C0886002D088700BD
:1015C0002B0881004030AC003108860032088700CB
:1015D0002C08810531088600320887008115310802
:1015E0008600320887008117280803190E2B303532
:1015F000613E86008701403FAC00413FAD000430B2
:101600002C06AE0000302D06AF003035613E86005E
:1016100087012E08C03F2F08C13F262B3035283EBA
:10162000860001308700403FAC00413FAD000430F0
:101630002C06AE0000302D06AF003035283E860067
:10164000013087002E08C03F2F08C13F3208A90093
:101650003108A80008009C3119248B319B315B2391
:101660008B319D3124258B318B170B1744082200B9
:10167000ED00230045082200EE002300460822006A
:10168000EF005D308600013087000A302100E9005C
:1016900000301E00E90B492B6D309D315B258B31ED
:1016A0002200E90069080319582B6D30EC00592B12
:1016B000EC016C080319A92B6C08023E860001306E
:1016C00087000108031D662B2030672B6230E7007E
:1016D0000030E8000A302100DE000030DF00CA30B0
:1016E000E0009830E100220068082100E3002200B9
:1016F00067082100E20022006C08860001308700A4
:1017000001082100E900EA016908E4006A08E5002F
:101710005D308B31AE238B315E082200EA00EB0195
:101720006A086B020318A92B9A31E0228B31003A28
:101730000319942B6B085D3E860001308700010879
:101740009E3177268B310130E90069082200EB07D2
:10175000902B6C0883314C238B314C2B2200CE0014
:10176000803021005F02003003195E02031CC32B8E
:101770004B302300CB000030CC00FF302100DE00D6
:10178000FF30DF000800E2302200CF004E08D20018
:10179000003021005F02023003195E02031CDC2BC3
:1017A0005E08FF3E2200DB00FF3021005F3D22008B
:1017B000DC00D401D501E52B01302200DB00003034
:1017C000DC000130D4000030D50021006108D800D1
:1017D0006008D7004F30D9005230903184208B31CF
:1017E00058082200D100210057082200D000210013
:1017F0005E085F0403192E2C2200D11B2E2C210021
:101800005E08FF3EE600FF305F3DE7002200510822
:10181000803A2100E8006708803A6802031D132C13
:10182000660822005002031C202C21005E08FF3EA7
:101830002200CC00FF3021005F3D2200CD00252C8E
:1018400022005108CD005008CC004C084E07210062
:10185000E6006608860001308700810122005108F9
:101860002100DF00220050082100DE0008002100D6
:1018700012113D009301900198010E30F50099304E
:10188000F400F601740886007508870081010130B4
:10189000F4070030F53D0130F0007008F6077608D7
:1018A0000319422C163091009F3097007B30920034
:1018B000F7017708F0000130F035FF3E031D5C2C86
:1018C0007035203E860087010030C03F0030C13FA8
:1018D000C23FC33F0130F0007008F70708307702BD
:1018E000031C592C0E1796010E120E13F730F00040
:1018F000700890052100ED012200A301A401A501BB
:101900003D009019762C01302200BE000130BD0050
:10191000BC01BB01C301F7017735613E8600870139
:101920000030C03FC13F7735283E86000130870038
:101930000030C03FC13F7708323E8600013087004B
:1019400081017708303E8600013087008101013037
:10195000F0007008F70702307702031C8C2C283047
:101960002000E1000030E20016303D0098004030D9
:10197000F0000030F100FF307005F2007F3071059B
:10198000F30072082000A2007308A3000830A10031
:101990000430A000A017EF0100302300C300003086
:1019A000C2000030C1000030C0002200BA01200097
:1019B000EC01080012113D009301900198010E30D6
:1019C0002100AD009930AC00AE012C0886002D0836
:1019D000870081010130AC070030AD3D0130A80027
:1019E0002808AE072E080319E52C16303D0091009B
:1019F0009F3097007B3092002100AF012F08A80094
:101A00000130A835FF3E031D012D2835203E8600FC
:101A100087010030C03F0030C13FC23FC33F0130AB
:101A2000A8002808AF0708302F02031CFE2C3D0039
:101A30000E1796010E120E13F7302100A800280889
:101A40003D0090052100ED012200A301A401A501A4
:101A50003D0090191C2D01302200BE000130BD0058
:101A6000BC01BB01C3012100AF012F35613E8600DF
:101A700087010030C03FC13F2F35283E860001302E
:101A800087000030C03FC13F2F08323E8600013042
:101A9000870081012F08303E8600013087008101D8
:101AA0000130A8002808AF0702302F02031C352D93
:101AB00028302000E1000030E20016303D009800A0
:101AC00040302100A8000030A900FF302805AA00FE
:101AD0007F302905AB002A082000A20021002B0836
:101AE0002000A3000830A1000430A000A017EF01DF
:101AF00000302300C3000030C2000030C1000030BD
:101B0000C0002200BA012000EC0108006B0886002A
:101B10008701413FF9007908F400F50175082200BA
:101B20002502031D952D740824020318992D2408FD
:101B3000F9007908F400F5017408A4027508A53BC2
:101B4000F801790878020318B72D2108860087016B
:101B50007808483E84008501000881000130F400C7
:101B60007408A1070130F4007408F807A12D2408B7
:101B700025040319F82D20006708013EF400003009
:101B8000683DF500740886007508870008308100FC
:101B90004830F4000030F500FF307405F6007F3067
:101BA0007505F700670886006808870042317608E7
:101BB000C03F7708C13F6B0886008701011BEC2DF1
:101BC000670886006808870048308100670886003B
:101BD0006808870081170800670886006808870082
:101BE00008308100670886006808870081170800B0
:101BF00020006708013EF4000030683DF5007408DD
:101C0000860075088700083081004030F4000030FD
:101C1000F500FF307405F6007F307505F7006708A2
:101C200086006808870042317608C03F7708C13FC8
:101C3000670886006808870004308100670886000E
:101C40006808870081172200260827040319322E0E
:101C50000530213E860001308700413F8A00403F29
:101C60000A008E31A3133F08031D080097318E2709
:101C700008006C03031D452E3D008E1A452E900171
:101C80001214121602302000EC003D001019121D33
:101C9000522EFB302000DF005F083D0090059D3193
:101CA00077258E313D008E1C582E20001211080021
:101CB0001018121C682E8C3137248E312100121519
:101CC00004302000EC00FE30DF005F083D0090058E
:101CD000101A121E6E2E9C318B248E313D00101F67
:101CE000962E121F822E73302000D0000030D100BB
:101CF0000030D200D3000130D4000030D5009F3135
:101D0000C3278E31BF302000DF005F083D00900503
:101D10009C3144248E3140080319902E0130C002BA
:101D20004008031D962E97318E278E313D00901A64
:101D3000921E9D2E9E3133268E319018921CB12E0C
:101D4000FF302000D0007F30D1000030D200D3001F
:101D50000130D4000030D5009F31C3278E313D00C3
:101D60009301043020006C020318B82E12110800F1
:101D70003D00921D092F2000E001062F0F082000D2
:101D8000EE006E0CDF00DF0C5F0C0F392200C2008A
:101D9000F7302000DF005F083D00900520006E193D
:101DA000D52E22004208303ED82E22004208323E74
:101DB000860001308700010801392000DF00013072
:101DC000DF0601085F06FE395F0681002200420837
:101DD000031DEE2E883100208E31FD2E7230200042
:101DE000D0000030D1006E30D2000030D30000307F
:101DF000D400D5009F31C3278E3101302000DF0091
:101E00005F08E007043060020318092F3D009019B5
:101E1000BE2E2000121108004108A9004008A800A9
:101E20009B31F2238F3128082904031D0800400844
:101E30005C3E86000030413D87000108C700400835
:101E40005D3E86000030413D8700010847060319CA
:101E500008004708C300C4014308AF004408B000AD
:101E600040085A3E86000030413D8700403FB100A7
:101E7000413FB2009D3109258F312F084007C50031
:101E80003008413DC6004508B5004608B600420886
:101E9000B70040085A3E86000030413D8700403F71
:101EA000B800413FB9009F3118278F3135083604FB
:101EB000031DF02F4708C80040085D3E8600003033
:101EC000413D8700010848060319C62F4808C30092
:101ED000C4014308AF004408B00040085A3E8600E1
:101EE0000030413D8700403FB100413FB2009D318D
:101EF00009258F312F084007B5003008413DB60055
:101F00004808013EAA00003003180130AB000F3032
:101F1000A8000030A9009131B5218F312908B00007
:101F20002808AF0040085A3E86000030413D870037
:101F3000403FB100413FB2009D3109258F312F084C
:101F40004007C5003008413DC6004508B7004608B7
:101F5000B80040085A3E86000030413D8700403FAF
:101F6000B900413FBA009E31C2268F310F30A80020
:101F70000030A9004808013EAA00003003180130D3
:101F8000AB009131B5218F3128085B2F0F30A800AD
:101F90000030A90040085D3E86000030413D8700CA
:101FA00001080E3EAA00003003180130AB00913149
:101FB000B5212808C30040085D3EC4000030413D03
:101FC000C500440886004508870043088100400892
:101FD0005E3E86000030413D8700013081020800EE
:101FE0000F30A8000030A9004708013EAA000030C9
:101FF00003180130AB009131B5218F3128081E2F15
:102000000034423400343E343C343A343B344534BA
:102010000034433441343F343D342B3435340034C0
:102020000034E234E1340034E03414341E3400343B
:10203000003400341D34163404341A341F34003490
:10204000003406341B34073408342134203400347F
:1020500000342C3419340934173415342234003444
:102060000034113405340B340A341C342334003466
:102070000034003410340D34183424342534003442
:10208000003436340E340C34123427342634003401
:102090000034373438340F34333413342D340034AF
:1020A00000340034343400342F342E3400340034FF
:1020B0003934E534283430340034313400340034D9
:1020C0000034003400340034003400342A34003446
:1020D00000341E34003421342434003400340034FD
:1020E000273437341F3422342334253429345334ED
:1020F00044342E3420342D34253426340034003436
:102100000034003400344034DB005808DD00570848
:10211000DC002300C701C80121005C0884005D08C1
:10212000850012000319A428DC30C8005908C90032
:102130005B0885316A25903148082300C7072100D4
:1021400049082300C83D8C28230048082100D800F6
:10215000230047082100D7000800F5002030F600D2
:102160007008F1000130F135890BB3287508F200D1
:102170000130F235FF3E031DB92872357107F300B7
:102180000130F335FF3E031DC1287335F400740898
:10219000F60776088600870181137008031DDA2888
:1021A0007535283E8600013087007608C03F003034
:1021B000C13FE2287535613E860087017608C03F41
:1021C0000030C13F76088600870101137608043E7F
:1021D0008600870101170800210091124F30A800E6
:1021E0001F30A9009B31102390312100111294302F
:1021F000A8001D30A9009B311823903108309F00A2
:1022000090309D0024309E00E1309B0004309C0003
:10221000C7302100A8001A30A9009B31002390315B
:10222000CD302100A8001A30A9009B31082390313D
:10223000CA302100A8001A30A9009A31F822E20120
:102240002200C901C8010830C7002000ED012300A9
:10225000E401E301210091160800BD002200341CB6
:10226000382921003D08B00037089E3112269131EF
:102270002100B91F3D29B801B901BB01BC013C08CF
:10228000803ABA003908803A3A02031D49293808D1
:102290003B0203185B2920302100A8000030A90070
:1022A0003D08AA0092318D22913101302100BB07F7
:1022B0000030BC3D3F2922003418652921003D082B
:1022C000B00037089E3112269131210037089C3129
:1022D0002E2438082807B7003908293DB80008001F
:1022E000F601F31F7A29F209F309F20A0319F30A36
:1022F000F601F60AF11F8129F009F109F00A031924
:10230000F10A700871040319A829F501F50AF11BF7
:1023100093290130F035F10D890B8A290130F40041
:102320007408F507872971087302031D992970083D
:102330007202031C9F297008F2027108F33B0130FE
:10234000F136F00C890BA0290130F502031D932909
:1023500076080319B029F209F309F20A0319F30AFE
:102360007308F1007208F0000800AE01AB1FBF292E
:10237000AA09AB09AA0A0319AB0AAE01AE0AA91F42
:10238000C629A809A909A80A0319A90A280829041D
:102390000319ED29AD01AD0AA91BD8290130A835D3
:1023A000A90D890BCF290130AC002C08AD07CC2931
:1023B00029082B02031DDE2928082A02031CE42910
:1023C0002808AA022908AB3B0130A936A80C890BC2
:1023D000E5290130AD02031DD8292E080319F5297E
:1023E000AA09AB09AA0A0319AB0A2B08A9002A08F3
:1023F000A80008002200C601BF01BC01BB01C10149
:102400002000EA017F30DD00610886006208870055
:102410005D08810504306106E10000306206E200DB
:102420007F30DD0061088600620887005D08810555
:1024300004306106E10000306206E2007F30DD001A
:1024400067088600680887005D0881052100ED01A6
:10245000EE01EF012200A301A401A5019631B826E7
:10246000913103302000D0000030D1000030D20084
:10247000D3000030D400D5009F31C327913187317C
:102480005E2708003030F0002330F1000130F20008
:102490000030F3009D31D22592318F3086002330F9
:1024A000870081012C308600233087000030C03F38
:1024B000C13FFA302300CF000030D0002000660872
:1024C00023004E06031D682A2000650823004D06E0
:1024D0000319732A200066082300CE002000650837
:1024E0002300CD005E2A1E30F70001309D31B22559
:1024F0009231F0012030F1000130F200F301F30AD3
:1025000001308A312B222C30860023308700423163
:102510007008C03F7108C13F08002A08031D2A083F
:10252000031D962A28088031032008002A08093E46
:10253000860001308700160001040319BD2A2A080D
:10254000093E860001308700403FAB00413FAC00B0
:102550002A08023E860001308700403FAD00413F1F
:10256000AE002E08803AAF002C08803A2F02031DDF
:10257000BB2A2B082D020318080021002A08860018
:10258000013087002A08023E8400013085000008DF
:102590000107AB002B088600013087002808810066
:1025A0002A08023E86000130870001308107413150
:1025B0000318810A08002000C801C901192B210055
:1025C000ED1722004403031D252B2000C814252BE2
:1025D0002100ED17252B2100ED17200044080F39AD
:1025E000003A0319252BC41B002B44080F39090797
:1025F000283E860001308700403FF000413F092B14
:1026000044080F390907613E86008701403FF0000A
:10261000413FF1007008860071088700811F252B5B
:102620007008860071088700011D252B0130C80045
:10263000252B40081F39003A0319DF2A013A0319F4
:10264000E82A033A0319EB2A252B2100ED1F080085
:102650004830EB000030EC006D140230EE00080052
:10266000BD00BB01BC013D0886008701403FB700AB
:10267000413FB800370884003808850012002A3A24
:10268000031D742B3D08860087010130810741310D
:102690000318810A3508860001308700010884008C
:1026A000850102308107003FBB00013FBC00862B43
:1026B0003A08B700B8013C08B0003B08AF000A3048
:1026C000B1000030B2009D310925933137082F0742
:1026D000BB003808303DBC003D0886008701013052
:1026E000810741310318810A3D0886008701403F78
:1026F000B700413FB800370884003808850000085B
:10270000D03EBA000A303A02031C582B3C08B600EF
:102710003B08B5000800B80022002C082D04031D5A
:10272000992B2D082100B70022002C082100B600AB
:10273000A22B2C08FF3E2100B600FF3022002D3DC9
:102740002100B7002200341CB22B21003008B20057
:10275000B3013208A8003308A9003808AA00923152
:102760008D2293312100B71FB72BB601B701B401F9
:10277000B5013508803AB2003708803A3202031DAD
:10278000C32B360834020318D52B20302100A800B3
:102790000030A9003808AA0092318D22933101300F
:1027A0002100B4070030B53DB92B22003418E42BCA
:1027B00021003008B200B3013208A8003308A90094
:1027C0003808AA0092318D2221003408013EB00061
:1027D0000030353DB10008003F08A9003E08A800C0
:1027E0009B31F223933128082904031D4C2C3E0809
:1027F0005C3E860000303F3D87000108C5003E0872
:102800005D3E860000303F3D870001084506031904
:102810004C2C4508C100C2014108AF004208B0007D
:102820003E085A3E860000303F3D8700403FB100E1
:10283000413FB2009D31092593312F083E07C30067
:1028400030083F3DC4004308B5004408B6004008C6
:10285000B7003E085A3E860000303F3D8700403FAB
:10286000B800413FB9009F3118279331350836042D
:10287000031D3C2C013008000F30A8000030A900D7
:102880004508013EAA00003003180130AB00913129
:10289000B52193312808FE2B0030080040085C3E2B
:1028A00086000030413D87000108C700C80140088C
:1028B0005E3E86000030413D870001084802031853
:1028C00008004808A80040085A3E86000030413DF4
:1028D000870001089B31D02394314207B500B6012F
:1028E0004708C300C4014308AF004408B0004008D3
:1028F0005A3E86000030413D8700403FB100413FD5
:10290000B2009D31092594312F084007C5003008D9
:10291000413DC6004508B7004608B80040085A3E89
:1029200086000030413D8700403FB900413FBA007A
:102930009E31C22694310F30A8000030A90047080C
:10294000013EAA00003003180130AB009131B521DF
:1029500094312808C7000130C3004308C807572C2A
:102960000830F200003021006F02083003196E02B7
:102970000318C72C6E08F20022004608031DC22C63
:102980000130C62C4603031DC72C0230C600720856
:10299000F000F10170082100EE027108EF3B200009
:1029A0006108013EF0000030623DF10070088600D1
:1029B000710887007208810048302200C50021009C
:1029C0006D1CF92C132D220045088600870121007B
:1029D0006B0884006C088500000881000130EB075B
:1029E0000030EC3D0130F00070082200C5070130D6
:1029F000F202720803190800E32C22004508860041
:102A0000870121006B0884006C08850000088100A4
:102A10000130EB070030EC3D0130F000700822007F
:102A2000C5070130F202720803190800FD2CBC0131
:102A3000BB01023020006A06031D492D6708013ED4
:102A4000F3000030683DF4007308860074088700C6
:102A5000083081004830F3000030F400FF30730587
:102A6000F5007F307405F600670886006808870067
:102A700042317508C03F7608C13F67088600680884
:102A80008700483081006708860068088700811742
:102A9000080021006F0820004702031D532D21006C
:102AA0006E082000460203185C2D47082100EF0045
:102AB000200046082100EE009431B0244830F30095
:102AC0000030F400FF307305F5007F307405F60028
:102AD0002000610886006208870042317508C03F07
:102AE0007608C13F6108860062088700483081008F
:102AF0006108860062088700811708005608F10007
:102B00005508F0009C310524953170087104031DAF
:102B1000080055085D3E86000030563D87000108DC
:102B2000D900DA015908F0005A08F10055085A3E58
:102B300086000030563D8700403FF200413FF300E1
:102B40009C31EE24953170085507F6007108563D0A
:102B5000F7005808F9005708F80055085A3E860053
:102B60000030563D8700403FFA00413FFB009E3158
:102B70009C2695310F30F0000030F10055085D3E85
:102B800086000030563D87000108013EF20000300B
:102B900003180130F300913170217008D9005508F5
:102BA0005D3EDA000030563DDB005A0886005B08C7
:102BB0008700590881000130D90055085E3E860023
:102BC0000030563D87005908810708004108A900D8
:102BD0004008A8008731EC27953128082904031DF7
:102BE000080040085D3E86000030413D8700010836
:102BF000C400C5014408AF004508B00040085A3E73
:102C000086000030413D8700403FB100413FB200A7
:102C10009D31092595312F084007B5003008413D09
:102C2000B6004308B8004208B70040085A3E860084
:102C30000030413D8700403FB900413FBA009E311E
:102C4000C22695310F30A8000030A90040085D3E33
:102C500086000030413D87000108013EAA00003097
:102C600003180130AB009131B5212808C400400899
:102C70005D3EC5000030413DC6004508860046085F
:102C80008700440881000130C40040085E3E860091
:102C90000030413D87004408810708004108A90031
:102CA0004008A8009B31F223963128082904031D0F
:102CB00008004208B5000130B60040085C3E8600BE
:102CC0000030413D87000108C300C4014308AF0044
:102CD0004408B00040085A3E86000030413D87005D
:102CE000403FB100413FB2009D31092596312F0888
:102CF0004007C5003008413DC6004508B7004608FA
:102D0000B80040085A3E86000030413D8700403FF1
:102D1000B900413FBA009E31C22696310F30A8005B
:102D20000030A90040085C3E86000030413D87002D
:102D30000108013EAA00003003180130AB009131B8
:102D4000B5212808C30040085C3EC4000030413D66
:102D5000C5004408860045088700430881004008F4
:102D60005E3E86000030413D870001308102080050
:102D70002000400E890C0339003A031D0800FF2E85
:102D80002100ED1708302000EC0008008831B92040
:102D900008008831472008006F302100EB00003028
:102DA000EC006D140130EE00ED1708009231DB22CB
:102DB000080082312C22080044084B3E2100EB0021
:102DC0000130EC006D140130EE00ED170800210019
:102DD000ED17200044084B3E860001308700420872
:102DE000810008000230D0000030D1000030D20055
:102DF000D3000030D400D5009F31C327080041081C
:102E0000003A0319D62E013A0319D92E023A0319B2
:102E1000D92E063A0319C02E033A0319C62E013AD9
:102E20000319F22E0F3A0319CC2E013A0319C92EB9
:102E3000033A0319DC2E013A0319E72E073A031966
:102E4000222F222F0800C100C201C20A22002D0831
:102E50002100C40022002C082100C3001F30C6003E
:102E60000030C7002400D1015C2FFF302100C607CD
:102E7000FF30C73D3E080F39C5000A304502031830
:102E8000432F3030442F3730C0004008C507460874
:102E9000323E86000230870045088100C201FF30C3
:102EA000C307FF30C43D3E0E0F39BE003F0EF03960
:102EB000BE043F0E0F39BF0021004708803AC00012
:102EC00080304002031D662F02304602031C7E2F15
:102ED00021003E083F04031D352F4208031D352FF6
:102EE0004408803AC00080304002031D792F013031
:102EF0004302031C7E2F2200B418352F2100460800
:102F0000323EB7004408B9004308B8004108913187
:102F10002D213808BF003708BE00080022003E08F7
:102F2000031D08000130BE003D08031D08000130EC
:102F3000BD00023020006A06031DB02F6108860024
:102F400062088700413181016108860062088700BC
:102F500048308100610886006208870081170800F8
:102F60006A03031D08002200C10120006B0A8600CD
:102F70008701083081004030F0000030F100FF3060
:102F80007005F2007F307105F3006B08023E860089
:102F900087017208C03F7308C13F6B088600870134
:102FA000043081006B088600870181170130220000
:102FB000C10020006708013EF0000030683DF100CC
:102FC0007008860071088700083081004030F000EA
:102FD0000030F100FF307005F2007F307105F30022
:102FE000670886006808870042317208C03F73088E
:102FF000C13F6708860068088700803081000800AC
:103000000534013409340634A1340134053407345D
:103010001934E0342934E7341534003425340134CC
:1030200075340134953408348134023495340134D4
:1030300075340834813403349534053475340134DF
:1030400005340834193401342934053491340234F8
:103050009534013475340334913403349534063493
:103060007534083415340034253465340534073498
:10307000193400342934653481340034C034343494
:1030800003344D3400346934003463340034723412
:1030900000346F34003463340034683400346934ED
:1030A0000034703400342034003454340034653437
:1030B000003463340034683400346E3400346F34C8
:1030C00000346C3400346F340034673400347934A5
:1030D000003420340034493400346E340034633416
:1030E00000342E34003409340234293400340134DD
:1030F00001340034C0343234093404340034003430
:1031000002340334013401340034093421341134DD
:1031100001340034013422343F34003407340534A0
:103120008134033408340034013407340534013465
:1031300003340834003401341C3403344B34003479
:103140006534003479340034623400346F34003430
:103150006134003472340034643400342034003478
:1031600044340034653400346D3400346F3400343A
:103170001234013400340234003400340034083492
:10318000D83404345534003401340034013402346A
:103190000034013425346334253430343234583427
:1031A0000D340A340034D93498343F3498349C3484
:0E31B0009834043403340934043473349834EE
:10358E000800080008009C315B2408001D121D165F
:10359E0008002200350808001630970008002000A9
:1035AE001C150800200048082200A0009B313B2378
:1035BE000800220047080319E62A013008000030EF
:1035CE00080029082300EC00210028082300EB0046
:1035DE00080029082300EA00210028082300E9003A
:1035EE00080029082300D200210028082300D1005A
:1035FE00080029082300D600210028082300D50042
:10360E00080029082300D400210028082300D30035
:10361E00080029082300DA00210028082300D90019
:10362E00080029082300DC00210028082300DB0005
:10363E00080029082300D800210028082300D700FD
:10364E0008000130B8070030B93D0030BA3D0030F7
:10365E00BB3D080023003B08F3003A08F20039088E
:10366E00F1003808F0000800903086002330870003
:10367E0020088100ED309C31D42408002700131E51
:10368E004B2B9B317E239B31931E08009B318B234A
:10369E000800903086002330870022002008810029
:1036AE00ED309D313F25080028302100A8001B3049
:1036BE00A9009B3120239B319A31D622080091100C
:1036CE002300570858040319080058088A005708A1
:1036DE000A009B3108006400800101310130FE02B6
:1036EE000030FF3B7F087E0403190034732B230048
:1036FE006B086C040319882B6C088A006B080A008F
:10370E009B31270013120800230069086A0403196D
:10371E00952B6A088A0069080A009B3127009312CC
:10372E000800F3007308031D08007008F100F20191
:10373E0071082300CF007208D00008004830220024
:10374E00A1000030A5000830A4001A30A700D9301F
:10375E00A600A3170800FC302100990098019030B4
:10376E0027009B002200960121001A1B0800BB2B8C
:10377E0022003908031D08000130B9009B313123A6
:10378E007308BF007208BE007108BD007008BC004F
:10379E000800AB00AA012B1CD82B2808A900290869
:1037AE00AA070310A80D0310AB0C2B08031DD22B78
:1037BE002A0808005D3020009B009A01911021001C
:1037CE0091140230A8000030A9009B3120230F3045
:1037DE0020009C00080028085E3E86000030293D2F
:1037EE0087000108031DFD2B0130FE2B0030AA00BF
:1037FE00AB012A08A8002B08A900080070085E3E3D
:10380E0086000030713D87000F300106031D112C1C
:10381E000130122C0030F200F3017208F000730830
:10382E00F10008009E31E8269C319B31B2239C3179
:10383E009A31D3229C319B31E1239C319031EC2083
:10384E009C318C31DA249C319C31BB240800AC00B5
:10385E002C08AB002C0886000230870001080319E3
:10386E003D2C0130AA002A08AC07312C2B082C0263
:10387E00A800A901A81BA903080001302300C00756
:10388E000030C13D0030C23D0030C33D2200430830
:10389E00031D08000130F0007008BA073A08031D36
:1038AE000800FF30BA00080020006D08A83E860010
:1038BE00013087002300190881000130F0007008E4
:1038CE002000ED0708306D020318ED010130F00005
:1038DE0070082300E30708007108F7007008F6006F
:1038EE000130F4020030F53B740A0319750A03190E
:1038FE00080076088600770887007208810001307C
:10390E00F6070030F73D772C1215EF30FD007D08DD
:10391E0090058E1401302200C300BA0175302000CC
:10392E00D0000030D1000030D200D3000030D400DF
:10393E00D5009F31C32708002908AF002808AE0024
:10394E000130AC020030AD3B2C0A03192D0A0319CD
:10395E0008002E0886002F0887002A0881000130F3
:10396E00AE070030AF3DA72C6C08031D08003D00CC
:10397E008E019201163091009F3097007B3092009D
:10398E00210012150B178B173D008E19D02C8E159A
:10399E00CB2C01302000EC000800F0007008B500C0
:1039AE008B1321000C1222000C12F0300032890B06
:1039BE00DD2C21000C162000E9010C302300DE0066
:1039CE00DD0121008C1222008C128B170800F401ED
:1039DE00F501701CF62C7208F4077308F53D0130E2
:1039EE00F235F30D890BF72C0130F136F00C890B03
:1039FE00FC2C70087104031DF02C7508F10074087E
:103A0E00F0000800B301B4012F1C112D3108B307CB
:103A1E003208B43D0130B135B20D890B122D013093
:103A2E00B036AF0C890B172D2F083004031D0B2D4C
:103A3E003408B0003308AF00080091302100A80010
:103A4E002330A9000330AA000030AB009D31F225CF
:103A5E009D316430A8000630A9009A31E8229D31CC
:103A6E00BF302100A8001B30A9009A31F0220800B7
:103A7E002100A80028082200B5008B1321000C128B
:103A8E0022000C12F0300032890B4A2D21000C1648
:103A9E002000E9010C302300DE00DD0121008C1234
:103AAE0022008C128B1708002100C7009130A8004D
:103ABE002330A9009B31F2239D3128082904031DD0
:103ACE00742D9130C0002330C1004708C2009631DA
:103ADE004E269D31C801C80A752DC8014808080038
:103AEE002200C30174302000D0000030D10000301D
:103AFE00D200D3000030D400D5009F31C3279D31B2
:103B0E003D008E101211101D912DFB30FD007D0811
:103B1E0090058A2D2200BA010800083022004702C3
:103B2E000318AF2D4808B03E86000130870001080B
:103B3E0023009A000130F00070082200C8070830F8
:103B4E0048020318C8010130F0007008C7070800CA
:103B5E00210011120800FC00771DBA2DF0017C081F
:103B6E009031AD209D31F71CC12DF001F00A7C087B
:103B7E009031AD207C08983EF800F9010E30F93DE9
:103B8E007808FA007908FB007A0886007B0887001F
:103B9E0077088100080070085A3E86000030713D9B
:103BAE0087007208C03F7308C13F70085C3E8600F4
:103BBE000030713D8700810170085D3E8600003047
:103BCE00713D8700810170085E3E86000030713DB8
:103BDE0087008101080028085A3E86000030293DE2
:103BEE0087002A08C03F2B08C13F28085C3E86008C
:103BFE000030293D8700810128085D3E8600003097
:103C0E00293D8700810128085E3E86000030293D4F
:103C1E00870081010800B600B401B50134083607EB
:103C2E00B10031088600023087000108B300330866
:103C3E00031908003308B100B2013108A800320898
:103C4E00A9003008AA0092318D229E310130210048
:103C5E00B4070030B53D152E181C502E20006B08F1
:103C6E008600870180300106031D4E2E61088600F6
:103C7E006208870084300106031D4E2E6B088600F5
:103C8E0087010C3081006B088600870181173D008B
:103C9E001810DF30F000700890050800A800280A00
:103CAE00860001308700010803196A2E2808860055
:103CBE000130870001086B3E840084300318013EFA
:103CCE0085000008080028088600013087000108DA
:103CDE00003E840090300318013E85000008080065
:103CEE002100A900220047080319792E2100111A7C
:103CFE00842E290823009A00992E111222004908B9
:103D0E00B03E860001308700210029088100013075
:103D1E00A80028082200C907083049020318C90163
:103D2E000130C7022100111608007908D300780867
:103D3E00D2007708D1007608D0000130FA020030A8
:103D4E00FB3B7A0A03197B0A031908005208860006
:103D5E00530887000108D4000130D2070030D33D4C
:103D6E005008860051088700540881000130D007A2
:103D7E000030D13DA42E3808BE003708BD003608ED
:103D8E00BC003508BB000130B9020030BA3B390A1D
:103D9E0003193A0A031908003D0886003E088700F9
:103DAE000108BF000130BD070030BE3D3B08860054
:103DBE003C0887003F0881000130BB070030BC3D46
:103DCE00CA2E22008C018D018E01303021008C0014
:103DDE0070308D00FF308E00CF3023008E008D01AD
:103DEE008C0124008D0130308C00210095132200AF
:103DFE009D01270013129312121692161112911290
:103E0E00C8302100A8001A30A9009A31E8229E314C
:103E1E00C9302100A8001A30A9009A31F0228B1562
:103E2E0008003608BC003508BB003708BD00362F29
:103E3E003D08860087013B0884003C088500000889
:103E4E000106031D3A2F0130B8020030B93B013094
:103E5E00BB070030BC3D0130BA003A08BD07380838
:103E6E003904031D1F2F38083904031D412FB501D6
:103E7E00B60108003B0886003C0887003D08840018
:103E8E00850100080102B500B601031CB603080047
:103E9E0020006D08A03E86000130870081012300BE
:103EAE001D1D662F20006D08A03E86000130870084
:103EBE008114230056088A0055080A009F312300FA
:103ECE009D1C762F20006D08A03E860001308700D5
:103EDE000115230054088A0053080A009F31200060
:103EEE006D08A03E86000130870001080319862F59
:103EFE00230052088A0051080A009F3108009C31A5
:103F0E005B24080002306A06031D902F8D31862532
:103F1E000800EA0122004108031DC12F2000670896
:103F2E00013EFA000030683DFB007A0886007B08EF
:103F3E008700083081004030FA000030FB00FF306F
:103F4E007A05FC007F307B05FD0067088600680857
:103F5E00870042317C08C03F7D08C13F670886005C
:103F6E00680887000C3081006708860068088700A3
:103F7E0081170800C1010800D82F650A7F30031988
:103F8E0066060319CF2F0130E5070030E63D080025
:103F9E00E501E60108009231422208008931AD2187
:103FAE0008005108003A0319E02F7F3A0319FA2F3F
:103FBE00FF2F5008013A0319D22F033A0319FF2F8E
:103FCE00013A0319D52F063A0319FF2F773A031931
:103FDE00FF2F013A0319C42F073A0319FF2F013A95
:103FEE000319FF2FFF2F5008FF3A0319FF2FFF2F42
:023FFE000800B9
:020000040001F9
:04000E00E43FCF3FBD
:00000001FF
