:1000000080313D28200808007E1480318B190B1C9C
:100010000D289C31612480313B280B1F3B28210097
:10002000121D19282000121D19288631C32680317F
:100030003B282100111E26282000111E26282300FF
:100040005C088A005B080A0080313B282100911E71
:1000500033282000911E332823005A088A005908AB
:100060000A0080313B282100911C3B282000911C74
:100070003B289C3177247E10090080313F282D30A9
:10008000840023308500C330FE000030FF009C3127
:100090008324803161308400003085000F30FE0001
:1000A0000030FF009C31832480312100EB01EC0102
:1000B000ED01EE01EF0121308400013085002B308D
:1000C000FE000030FF009C3183248031A03084008A
:1000D000013085004530FE000030FF009C31832454
:1000E000803120308400023085003230FE00003044
:1000F000FF009C3183247E1020008B31A72B210030
:10010000D300203020006B02031C08003D008E1835
:1001100008002000660822002F06031D93282000F7
:10012000650822002E0603199E282000660822007A
:10013000AF00200065082200AE00892823004D088A
:1001400022002E022100D00023004E0822002F3B67
:100150002100D100D11FBE2823004D0822002E020D
:100160002100C90023004E0822002F3B2100CA00B5
:100170004908FF3ED0007F304A3DD1005108803A07
:10018000C90093304902031DC72889305002031C5F
:10019000D32822002E08783E2300CD00EC30220028
:1001A0002F3D2300CE002D3086002330870016001F
:1001B00001040319EA282D30860023308700403FD0
:1001C0002100C900413FCA00490886004A0887004B
:1001D000811B852A210053080319072A530886002A
:1001E0000130870001080319072A530A86000130ED
:1001F00087000108031964295308023E8600013074
:100200008700010803192F29530886000130870051
:1002100014300106031D1229903086002330870018
:100220000112072A530886000130870011300106A9
:10023000031D202990308600233087000113072AF0
:100240005308903186208031CB003130C0002330FC
:10025000C100CB30C2008531CF258031072A530839
:1002600086000130870014300106031D3D299030BF
:100270008600233087000116072A530886000130C4
:10028000870011300106031D4B2990308600233072
:1002900087000117072A5308903186208031CE004D
:1002A0003130BE002330BF00CE30C0009431C824AE
:1002B0008031003A031D072A3130C0002330C100CD
:1002C000CE30C2000030032A5308023E86000130BF
:1002D000870001080319B3295308860001308700FD
:1002E00012300106031D7A299030860023308700E2
:1002F0008110072A53088600013087001430010658
:10030000031D882990308600233087000110072ABA
:10031000530886000130870011300106031D96291D
:1003200090308600233087000111072A5308860089
:100330000130870059300106031DA4299030860042
:10034000233087008112072A53089031862080319C
:10035000CC003130C0002330C100CC30C200853128
:10036000CF258031072A53088600013087001230DC
:100370000106031DC12990308600233087008114B7
:10038000072A530886000130870014300106031D38
:10039000CF2990308600233087000114072A5308A4
:1003A00086000130870011300106031DDD299030E1
:1003B0008600233087000115072A53088600013084
:1003C000870059300106031DEB2990308600233049
:1003D00087008116072A5308903186208031CF008C
:1003E0003130BE002330BF00CF30C0009431C8246C
:1003F0008031003A031D072A3130C0002330C1008C
:10040000CF30C2000030C3009631C2268031A03008
:10041000A8000030A9000030AA00AB000830AC00F2
:100420000030AD009D31B72580313130C000233020
:10043000C100A230C20095312A258031903086005B
:10044000233087000108A000CD01D2012B2A013002
:10045000C9004908D2070830520203183E2A520840
:10046000A03E8600870152082A3E840002308500A3
:10047000000801060319272ACD01CD0A23004F08E1
:1004800050040319572A21005108803AC90023005B
:100490005008803A21004902031D522A23004F08C8
:1004A00021005002031C572A2100CD01CD0A210052
:1004B0004D03031D852AA0308600003087002A30B6
:1004C0008400023085000830C90016001A00C90BEC
:1004D000652AA801A80AA030A9000030AA000830A7
:1004E000AB0001308B31272380312D308600233043
:1004F00087002808C03F2908C13F22002F08230099
:10050000CE0022002E082300CD002D30860023309F
:10051000870042311600010403199E2A2D308600FF
:10052000233087004231403F2100C900413FCA00CB
:10053000490886004A088700811B08009B31F22386
:1005400080312100A8012030A9000130AA00AB01B0
:10055000AB0A01308B3127232D30860023308700F2
:1005600042312808C03F2908C13F0800200042034B
:10057000031DCC2A40081F39003A031DCC2A210054
:10058000ED17033020004106031DCA2A0130220066
:10059000C500CC2A2200C50120004208031D080026
:1005A00040081F39023A031D080044080F39003A79
:1005B0000319080044080F39D60002305602031808
:1005C000080020306B06031D08002100ED172000F5
:1005D000C41BF92A44080F390907283E8600013058
:1005E0008700403FDB00413FDC0044080F39303ECC
:1005F000062B44080F390907613E86008701403FFA
:10060000DB00413FDC0044080F39323E86000130F8
:1006100087000108DA005A18172BFB30D600FF308C
:10062000D7005B085605DB005C0857051C2B04301F
:100630005B04DB0000305C04DC00C41B2B2B440893
:100640000F390907283E8600013087005B08C03F4C
:100650005C08C13F352B44080F390907613E86000D
:1006600087015B08C03F5C08C13F03304106031DA2
:10067000572B5B0886005C088700811F4C2BC41B2E
:10068000452B44080F39303E482B44080F39323E81
:1006900086000130870081145B0886005C088700B3
:1006A00001155B0886005C0887008117080004308C
:1006B0005B06DB0000305C06DC005B0886005C0843
:1006C0008700811F802B7F30D6005B0886005C0886
:1006D0008700560881055B0886005C0887000117C3
:1006E0000530D0000030D1005C08D3005B08D20098
:1006F0000230D4000030D500913153218231852B56
:100700005B0886005C0887000117043020005B0648
:10071000DB0000305C06DC00DA18942B5B088600F6
:100720005C088700811FB92BC41B9A2B44080F3922
:10073000303E9D2B44080F39323E86000130870041
:1007400081103B30D6005B0886005C0887005608A5
:1007500081050530D0000030D1005C08D3005B0873
:10076000D2000230D4000030D500913153218231C3
:10077000C12B3B30D6005B0886005C08870056081A
:100780008105200044080F39983ED600D7010E306D
:10079000D73D5608D8005708D900FE30D600580873
:1007A0008600590887005608810508000034003487
:1007B0000034003400340034003400340034003499
:1007C0000034003400340034003400340034E634A3
:1007D00000340034E4340034003400340034003495
:1007E00000340034003400340034E3340034003486
:1007F00000340034003400340034E7340034003472
:1008000000340034003400340034653400340034E3
:100810000034003400340034003400340034003438
:100820000034003400340034003400340034003428
:100830000034003400340034003400340034003418
:1008400054340034003400340034003400340034B4
:1008500000340034003400340034003400340034F8
:100860005834003400340034003400340034003490
:1008700000340034003400340034003400344D348B
:10088000003450344A3400340034003449344C3499
:10089000513400344F3452340034003400340034C6
:1008A0004E34003446344B340034003400340034C9
:1008B0000034003400340034003400340034003498
:1008C0000034003400340034003400340034003488
:1008D0000034003400340034003400340034003478
:1008E0000034003400340034003400340034003468
:1008F0000034003400340034003400340034003458
:100900000034003400340034003400340034003447
:100910000034003400340034003400340034003437
:100920000034003400340034003400340034003427
:100930000034003400340034003400340034003417
:100940000034003400340034003400340034003407
:1009500000340034003400340034003400340034F7
:1009600000340034003400340034003400340034E7
:1009700000340034003400340034003400340034D7
:1009800000340034003400340034003400340034C7
:1009900000340034003400340034003400340034B7
:1009A00000340034003400340034D6004808860097
:1009B0008701403FCA00413FCB004A0884004B08F2
:1009C00085001200253A031DAB2D480886008701DB
:1009D0000130810741310318810A2200AC01AD01C9
:1009E0000310003003180130B400FF302300C900A9
:1009F000FF30CA002100D3010B2D2200B4142100C6
:100A00004808860087010130810741310318810AB7
:100A10000B2DD301D30A5308031D1F2D4808860050
:100A20008701403FCA00413FCB004A0884004B0881
:100A300085000008303A0319FD2C092D0B2D4908BB
:100A4000B500480894310C24843136082200AD00EA
:100A5000210035082200AC00AD1F342D3414AC0940
:100A6000AD09AC0A0319AD0A2100480886008701C8
:100A7000403FCA00413FCB004A0884004B08850034
:100A80001200633A031D612D48088600870101307A
:100A9000810741310318810A490886000130870027
:100AA000010884008501023081070008D200520845
:100AB000B0005608943167243108C9003008C800D6
:100AC0000800480886008701403FD400413FD50018
:100AD00054088400550885001200583A031DA02DC3
:100AE0004908860001308700010884008501023032
:100AF0008107003FCE00013FCF005408013ECA00ED
:100B00000030553DCB004808860087014A08C03FA9
:100B10004B08C13F972D4F08BF004E08BE00560836
:100B2000973195273F08C9003E08C80008005408BF
:100B30008400550885000008583A03198B2DA02D14
:100B40004808860087010130810741310318810A76
:100B5000C801C9010800480886008701403FCA0053
:100B6000413FCB004A0884004B0885000008CC00B8
:100B7000CD014C08A8004D08A9005608AA008831EC
:100B80000320210048088600870101308107413198
:100B90000318810A0130C8000030C900080041086C
:100BA000A9004008A8009C31F224853128082904B6
:100BB000031D080040085C3E86000030413D870070
:100BC0000108C70040085D3E86000030413D8700B7
:100BD00001084706031908004708C300C401430879
:100BE000AF004408B00040085A3E86000030413D46
:100BF0008700403FB100413FB2009E31032685315E
:100C00002F084007C5003008413DC6004508B50023
:100C10004608B6004208B70040085A3E8600003039
:100C2000413D8700403FB800413FB9009031A820C6
:100C3000853135083604031DB32E4708C800400827
:100C40005D3E86000030413D8700010848060319DB
:100C5000892E4808C300C4014308AF004408B0000F
:100C600040085A3E86000030413D8700403FB100B9
:100C7000413FB2009E31032685312F084007B50061
:100C80003008413DB6004808013EAA000030031874
:100C90000130AB000F30A8000030A900923198223B
:100CA00085312908B0002808AF0040085A3E860068
:100CB0000030413D8700403FB100413FB2009E31CE
:100CC000032685312F084007C5003008413DC60086
:100CD0004508B7004608B80040085A3E8600003074
:100CE000413D8700403FB900413FBA009F315B273B
:100CF00085310F30A8000030A9004808013EAA0045
:100D0000003003180130AB00923198228531280859
:100D10001E2E0F30A8000030A90040085D3E86005E
:100D20000030413D870001080E3EAA000030031844
:100D30000130AB00923198222808C30040085D3E84
:100D4000C4000030413DC5004408860045088700C6
:100D50004308810040085E3E86000030413D870028
:100D60000130810208000F30A8000030A9004708B8
:100D7000013EAA00003003180130AB0092319822E6
:100D800085312808E12D6B03031DCF2E3D008E1AFF
:100D9000CF2E90011214121602302000EB003D00FD
:100DA0001019121DDC2EFB302000DF005F083D0013
:100DB00090059E31552686313D008E1CE22E200086
:100DC000121108001018121CF22E8D3142258631A6
:100DD0002100121504302000EB00FE30DF005F0818
:100DE0003D009005101A121EF82E9D319F25863168
:100DF0003D00101F202F121F0C2F73302000D00039
:100E00000030D1000030D200D3000130D4000030D7
:100E1000D500913153218631BF302000DF005F08BB
:100E20003D0090059D3158258631410803191A2F40
:100E30000130C1024108031D202F88315120863125
:100E40003D00901A921E272F9F311327863190184C
:100E5000921C3B2FFF302000D0007F30D1000030AB
:100E6000D200D3000130D4000030D500913153219D
:100E700086313D009301043020006B020318422F9D
:100E8000121108003D00921D932F2000E001902FC9
:100E90000F082000EE006E0CDF00DF0C5F0C0F3936
:100EA0002200C300F7302000DF005F083D009005FE
:100EB00020006E195F2F22004308303E622F22006F
:100EC0004308323E860001308700010801392000C6
:100ED000DF000130DF0601085F06FE395F06810092
:100EE00022004308031D782F9231DD228631872F9F
:100EF00072302000D0000030D1006E30D2000030BF
:100F0000D3000030D400D500913153218631013017
:100F10002000DF005F08E007043060020318932F11
:100F20003D009019482F2000121108004108A90027
:100F30004008A8009C31F224873128082904031DA9
:100F400008004208B5000130B60040085C3E86004B
:100F50000030413D87000108C300C4014308AF00D1
:100F60004408B00040085A3E86000030413D8700EA
:100F7000403FB100413FB2009E31032687312F0828
:100F80004007C5003008413DC6004508B700460887
:100F9000B80040085A3E86000030413D8700403F7F
:100FA000B900413FBA009F315B2787310F30A8005D
:100FB0000030A90040085C3E86000030413D8700BB
:100FC0000108013EAA00003003180130AB00923145
:100FD00098222808C30040085C3EC4000030413D10
:100FE000C500440886004508870043088100400882
:100FF0005E3E86000030413D8700013081020800DE
:1010000020001C1508002A08031D2A08031D0C28AF
:1010100028089031852008002A08093E8600013002
:10102000870016000104031933282A08093E8600A8
:1010300001308700403FAB00413FAC002A08023E30
:10104000860001308700403FAD00413FAE002E08D2
:10105000803AAF002C08803A2F02031D31282B085C
:101060002D020318080021002A088600013087009D
:101070002A08023E84000130850000080107AB0009
:101080002B08860001308700280881002A08023ECC
:101090008600013087000130810741310318810A41
:1010A000080022003F08031D08000130BF003E0871
:1010B000031D08000130BE00023020006906031D38
:1010C0007328610886006208870041318101610848
:1010D0008600620887004830810061088600620847
:1010E0008700811708006903031D08002200C20160
:1010F00020006A0A86008701083081004030F00035
:101100000030F100FF307005F2007F307105F30010
:101110006A08023E860087017208C03F7308C13F1B
:101120006A0886008701043081006A08860087010A
:10113000811701302200C20020006708013EF00044
:101140000030683DF10070088600710887000830A3
:1011500081004030F0000030F100FF307005F200F7
:101160007F307105F3006708860068088700423108
:101170007208C03F7308C13F67088600680887008F
:101180008030810008002100ED170E302000D700CC
:101190009930D600D801560886005708870081018B
:1011A0000130D6070030D73D0130FD007D08D8075B
:1011B00058080319CB282030F0000030F10000302F
:1011C000F200F3002030F4000030F5009D31872557
:1011D00088313D000E172000D9015908323E8600A3
:1011E0000130870081015908303E860001308700B8
:1011F00081010130FD007D08D90702305902031C2E
:10120000ED284B30F0000130F1000030F200F30027
:101210000130F4000030F5009D31872588313D0014
:101220000E1328302000E1000030E2002030EA00F8
:101230006A08E700E8014208EF006F08031D232950
:101240001030EB0008000130D0000030D1006F30CA
:10125000D2000030D3000130D4000030D5009131ED
:10126000532120302000EB00080080302000400691
:10127000031D0800C0302100ED00A129B830210075
:10128000EB009830EC000030EF001230EE00080068
:101290004208031D77294208F000F101F035F10DF5
:1012A000DD30700784001830713D80388500003FC4
:1012B0002100EB00013FEC006C08F1006B08F0002E
:1012C00002307007840071080318710A8500000855
:1012D000EE006C08F1006B08F0000330700784002A
:1012E00071080318710A85000008EF00080021004A
:1012F000ED0108000330420203189B294208F00068
:10130000F101F035F10DD330700784001830713DD4
:1013100080388500003F2100EB00013FEC006B08A6
:1013200084006C0885000008F000F1017008EE00F0
:101330007108EF0008002100ED0108002100ED0117
:10134000080020004308013A03193E29033A031913
:101350004829013A03197A299E2908006108860064
:10136000620887000030011B0130F700043061067D
:10137000E10000306206E20008306B06031DCC2954
:1013800042087F393D00960016080319C92910301C
:10139000CA2904302000EB006903031D142A4830D9
:1013A000F3000030F400FF307305F5007F30740562
:1013B000F600610886006208870042317508C03F68
:1013C0007608C13F95318C258931023022004706CD
:1013D000031DF72920006108860062088700043099
:1013E000810061088600620887008117080077087D
:1013F000031D072A20006108860062088700483024
:1014000081006108860062088700811708002000BB
:101410006108860062088700083081006108860044
:1014200062088700811708002200A31F262A2608C9
:1014300027040319252A0530213E86000130870044
:10144000413F8A00403F0A008A31A3132000E9018E
:10145000080040081F39013A031D08004408031D15
:1014600008000630410603194E2A592A6F03031D4E
:10147000592A85302100EB009830EC000030EF0055
:1014800009304A2A00302100EB009830EC0000308F
:10149000EF003F30EE00C030ED00592A4308213AFA
:1014A0000319362A033A0319422A013A0319592A21
:1014B000592A2000400E890C0339013A031D080007
:1014C000922A9C31B62408004A302100EB000130FA
:1014D000EC000030EF000130EE00C130ED000800FC
:1014E00080302100ED00200043082200CA004A0895
:1014F000F000200042089C31A9240800E4302100BB
:10150000EB000130EC000030EF000130EE008130E4
:10151000ED00080080302100ED002000420823008B
:10152000E40008004108013A0319A62A033A031906
:10153000642A013A03197E2A0A3A0319612A033AF6
:101540000319702A013A03198A2AA62A0800F8000A
:1015500070080319B32A7835613E86008701403F41
:10156000F900413FBB2A7835283E860001308700CC
:10157000403FF900413FFA0079087A04031DC32A6D
:10158000F001F1010800FF307105F4007F307205B1
:10159000F500790886007A08870042317408C03F58
:1015A0007508C13F7908013EF40000307A3DF5002E
:1015B0007408860075088700730881004030F400C5
:1015C000790886007A088700740881057908860002
:1015D0007A0887008115790886007A0887008117C4
:1015E000700803190A2B7835613E86008701403F59
:1015F000F400413FF50004307406F6000030750633
:10160000F7007835613E860087017608C03F77088D
:10161000C13F222B7835283E860001308700403FAD
:10162000F400413FF50004307406F6000030750602
:10163000F7007835283E8600013087007608C03FE5
:101640007708C13F7A08F1007908F0000800B0007F
:1016500028080319332B3035613E86008701403F4F
:10166000B100413F3B2B3035283E860001308700DA
:10167000403FB100413FB20031083204031D432B0B
:10168000A801A9010800FF302905AC007F302A0518
:10169000AD00310886003208870042312C08C03F77
:1016A0002D08C13F3108013EAC000030323DAD0095
:1016B0002C0886002D0887002B0881004030AC00E4
:1016C00031088600320887002C0881053108860021
:1016D000320887008115310886003208870081179B
:1016E000280803198A2B3035613E86008701403F68
:1016F000AC00413FAD0004302C06AE0000302D069A
:10170000AF003035613E860087012E08C03F2F08AC
:10171000C13FA22B3035283E860001308700403F74
:10172000AC00413FAD0004302C06AE0000302D0669
:10173000AF003035283E8600013087002E08C03FBC
:101740002F08C13F3208A9003108A80008009D31C8
:101750002D258B319C316C248B319E311E268B3193
:101760008B170B1744082200ED00230045082200C8
:10177000EE00230046082200EF005D3086000130B5
:1017800087000A302100E90000301E00E90BC52B5C
:101790006D309E3139268B312200E900690803192A
:1017A000D42B6D30EC00D52BEC016C080319262CE2
:1017B0006C08023E8600013087000108031DE22B01
:1017C0002030E32B6230E7000030E8000A302100CF
:1017D000DE000030DF00CA30E0009830E100220077
:1017E00068082100E300220067082100E2002200CF
:1017F0006C0886000130870001082100E900EA0139
:101800006908E4006A08E5005D308C312B248B31D7
:101810005E082200EA00EB016A086B020318262C1E
:101820009C3106248B31003A0319102C22006B08DE
:101830005D3E86000130870001089F3181278B3192
:101840000130E90069082200EB070C2C6C0880319C
:101850007F208B31C82B2200CE00803021005F0218
:10186000003003195E02031C402C4B302300CB00D8
:101870000030CC00FF302100DE00FF30DF00080028
:10188000E2302200CF004E08D200003021005F027B
:10189000023003195E02031C592C5E08FF3E220031
:1018A000DB00FF3021005F3D2200DC00D401D501C8
:1018B000622C01302200DB000030DC000130D4005B
:1018C0000030D50021006108D8006008D7004F30F3
:1018D000D90052309F31A7278C3158082200D100FF
:1018E000210057082200D00021005E085F04031980
:1018F000AB2C2200D11BAB2C21005E08FF3EE60082
:10190000FF305F3DE70022005108803A2100E800E7
:101910006708803A6802031D902C66082200500276
:10192000031C9D2C21005E08FF3E2200CC00FF30EE
:1019300021005F3D2200CD00A22C22005108CD00E5
:101940005008CC004C084E072100E60066088600CF
:10195000013087008101220051082100DF002200B0
:1019600050082100DE0008003D000E122100ED1B92
:10197000002D2200A31FC92C02302000E900220004
:101980003C08031DC52C9531F3252200BE01BF0183
:10199000080020006708013EF7000030683DF800AD
:1019A0007708860078088700083081004030F7000B
:1019B0000030F800FF307705F9007F307805FA0035
:1019C000670886006808870042317908C03F7A08B6
:1019D000C13F67088600680887000C3081006708EF
:1019E0008600680887008117610886006208870002
:1019F00004308100610886006208870081170800B2
:101A00002000C01F152D0130E90022003D08031DF4
:101A10000C2D9531F3258C312200BE01BF01400809
:101A2000031D08008831512008000230E9006708D2
:101A3000013EF7000030683DF8007708860078081E
:101A40008700083081004030F7000030F800FF3098
:101A50007705F9007F307805FA0067088600680886
:101A6000870042317908C03F7A08C13F6708860085
:101A700068088700043081006708860068088700CE
:101A800081170C2D210012113D0093019001980146
:101A90000E30F5009930F400F601740886007508E0
:101AA000870081010130F4070030F53D0130F0007E
:101AB0007008F607760803194D2D163091009F30F7
:101AC00097007B309200F7017708F0000130F03585
:101AD000FF3E031D672D7035203E860087010030D4
:101AE000C03F0030C13FC23FC33F0130F00070082B
:101AF000F70708307702031C642D0E1796010E12AB
:101B00000E13F730F000700890052100ED0122005F
:101B1000A301A401A5013D009019812D01302200EF
:101B2000BF000130BE00BD01BC01C401F701773523
:101B3000613E860087010030C03FC13F7735283EB7
:101B40008600013087000030C03FC13F7708323E39
:101B500086000130870081017708303E8600013021
:101B6000870081010130F0007008F707023077022A
:101B7000031C972D28302000E1000030E2001630D1
:101B80003D0098004030F0000030F100FF3070055B
:101B9000F2007F307105F30072082000A200730884
:101BA000A3000830A1000430A000A017EF0100300E
:101BB0002300C3000030C2000030C1000030C0006C
:101BC0002200BB012000EB01080012113D0093012F
:101BD000900198010E302100AD009930AC00AE01AB
:101BE0002C0886002D08870081010130AC070030E9
:101BF000AD3D0130A8002808AE072E080319F02DCE
:101C000016303D0091009F3097007B3092002100FC
:101C1000AF012F08A8000130A835FF3E031D0C2E90
:101C20002835203E860087010030C03F0030C13F8C
:101C3000C23FC33F0130A8002808AF0708302F0279
:101C4000031C092E3D000E1796010E120E13F730DD
:101C50002100A80028083D0090052100ED01220088
:101C6000A301A401A5013D009019272E01302200F7
:101C7000BF000130BE00BD01BC01C4012100AF01A5
:101C80002F35613E860087010030C03FC13F2F35B0
:101C9000283E8600013087000030C03FC13F2F083A
:101CA000323E86000130870081012F08303E8600D9
:101CB0000130870081010130A8002808AF070230F9
:101CC0002F02031C402E28302000E1000030E200EB
:101CD00016303D00980040302100A8000030A900D7
:101CE000FF302805AA007F302905AB002A08200014
:101CF000A20021002B082000A3000830A10004301E
:101D0000A000A017EF0100302300C3000030C20084
:101D10000030C1000030C0002200BB012000EB01F8
:101D200008006A0886008701413FF9007908F4003D
:101D3000F501750822002502031DA02E7408240257
:101D40000318A42E2408F9007908F400F50174089A
:101D5000A4027508A53BF801790878020318C22E81
:101D60002108860087017808483E84008501000824
:101D700081000130F4007408A1070130F4007408F8
:101D8000F807AC2E240825040319032F2000670848
:101D9000013EF4000030683DF500740886007508C7
:101DA0008700083081004830F4000030F500FF3033
:101DB0007405F6007F307505F7006708860068082F
:101DC000870042317608C03F7708C13F6A08860025
:101DD0008701011BF72E67088600680887004830D6
:101DE0008100670886006808870081170800670877
:101DF0008600680887000830810067088600680848
:101E000087008117080020006708013EF4000030B9
:101E1000683DF50074088600750887000830810069
:101E20004030F4000030F500FF307405F6007F30DC
:101E30007505F70067088600680887004231760854
:101E4000C03F7708C13F67088600680887000430F4
:101E5000810067088600680887008117220026082D
:101E6000270403193D2F0530213E860001308700ED
:101E7000413F8A00403F0A008F31A3134008031DF1
:101E800008008831512008009C3157248F313C08CC
:101E900070022000DC0023003D08713B2000DD00C3
:101EA00023003E08723B2000DE0023003F08733B06
:101EB0002000DF005F08031D672F5E08031D672FEA
:101EC0005D08031D672FFA305C02031CE72F013009
:101ED0002200BA009C3157248F317308BF0072086A
:101EE000BE007108BD007008BC00E72F2200B901D8
:101EF000B8012300E10102302200BA0008000030DE
:101F00008C1A01302200B60036082000DC002200C6
:101F1000390A20008C2FDC35890B8B2F5C08DD0003
:101F20005D082300E104220036082000DC005C0884
:101F30002200B80701302000DC005C082200B9074D
:101F400008303906031D7B2F0330BA00080000302B
:101F50008C1A01302200B60036082000DC005C0834
:101F60002200B807381CB62F0130B72F0030B70059
:101F70000430BA000800E03023006106031DC42FBE
:101F800001302200B500E42FF0306106031DCB2F95
:101F90000130DD00E42F5D08E30022003508230056
:101FA000E200220037080319E02F91302000D5000D
:101FB0002330D600E130D7000130D80096315A26C0
:101FC0002300DD012200B5012200BA010800220031
:101FD0003A082000DC00DD015D08003A0319F12F0A
:101FE000E42F5C08013A0319762F033A03197F2F77
:101FF000013A0319A72F073A0319BB2FE42F080052
:102000000034423400343E343C343A343B344534BA
:102010000034433441343F343D342B3435340034C0
:102020000034E234E1340034E03414341E3400343B
:10203000003400341D34163404341A341F34003490
:10204000003406341B34073408342134203400347F
:1020500000342C3419340934173415342234003444
:102060000034113405340B340A341C342334003466
:102070000034003410340D34183424342534003442
:10208000003436340E340C34123427342634003401
:102090000034373438340F34333413342D340034AF
:1020A00000340034343400342F342E3400340034FF
:1020B0003934E534283430340034313400340034D9
:1020C0000034003400340034003400342A34003446
:1020D00000341E34003421342434003400340034FD
:1020E000273437341F3422342334253429345334ED
:1020F00044342E3420342D34253426340034003436
:10210000003400340034403408000800A800280AD5
:10211000860001308700010803199B2828088600E3
:10212000013087000108D63E840083300318013E49
:102130008500000808002808860001308700010893
:10214000003E840090300318013E8500000808001E
:102150003608BC003508BB003708BD00C6283D085E
:10216000860087013B0884003C08850000080106C2
:10217000031DCA280130B8020030B93B0130BB074B
:102180000030BC3D0130BA003A08BD0738083904B8
:10219000031DAF2838083904031DD128B501B60145
:1021A00008003B0886003C0887003D088400850144
:1021B00000080102B500B601031CB60308002000A8
:1021C0006C08A03E860001308700810123001D1DA0
:1021D000F62820006C08A03E86000130870081149C
:1021E000230056088A0055080A00903123009D1CE0
:1021F000062920006C08A03E8600013087000115EA
:10220000230054088A0053080A00913120006C080A
:10221000A03E86000130870001080319162923001B
:1022200052088A0051080A00913108009D316F253B
:10223000080002306906031D20298E31912608000E
:10224000E90122004208031D512920006708013ED0
:10225000FA000030683DFB007A0886007B088700A2
:10226000083081004030FA000030FB00FF307A0572
:10227000FC007F307B05FD0067088600680887004A
:1022800042317C08C03F7D08C13F6708860068086E
:1022900087000C3081006708860068088700811776
:1022A0000800C20108006829650A7F300319660624
:1022B00003195F290130E5070030E63D0800E5011C
:1022C000E601080093316C2308008A3129220800B6
:1022D0005108003A031970297F3A03198A298F2976
:1022E0005008013A03196229033A03198F29013A68
:1022F00003196529063A03198F29773A03198F299B
:10230000013A03195429073A03198F29013A03198D
:102310008F298F295008FF3A03198F298F29080028
:10232000F5002030F6007008F1000130F135890B1E
:1023300096297508F2000130F235FF3E031D9C29F5
:1023400072357107F3000130F335FF3E031DA429F8
:102350007335F4007408F607760886008701811348
:102360007008031DBD297535283E860001308700A1
:102370007608C03F0030C13FC5297535613E8600F3
:1023800087017608C03F0030C13F7608860087018C
:1023900001137608043E860087010117080021001A
:1023A0009112DF30A8001030A9009C313624913101
:1023B000210011127230A8001E30A9009C313E2469
:1023C000913108309F0090309D0024309E00E13014
:1023D0009B0004309C00E9302100A8001B30A900BC
:1023E0009C3126249131EF302100A8001B30A90038
:1023F0009C312E249131EC302100A8001B30A90023
:102400009C311E24DE012200C901C80108302000D1
:10241000ED00EC012300E001DF012100911608002E
:10242000BD002200341C1B2A21003D08B0003708E3
:102430009E31F22692312100B91F202AB801B9013C
:10244000BB01BC013C08803ABA003908803A3A0224
:10245000031D2C2A38083B0203183E2A2030210095
:10246000A8000030A9003D08AA008831032092315D
:1024700001302100BB070030BC3D222A2200341865
:10248000482A21003D08B00037089E31F2269231DB
:10249000210037089D31422538082807B700390840
:1024A000293DB8000800F601F31F5D2AF209F3097F
:1024B000F20A0319F30AF601F60AF11F642AF00979
:1024C000F109F00A0319F10A7008710403198B2A43
:1024D000F501F50AF11B762A0130F035F10D890B73
:1024E0006D2A0130F4007408F5076A2A7108730236
:1024F000031D7C2A70087202031C822A7008F202F3
:102500007108F33B0130F136F00C890B832A01305E
:10251000F502031D762A76080319932AF209F309B6
:10252000F20A0319F30A7308F1007208F0000800B8
:10253000AE01AB1FA22AAA09AB09AA0A0319AB0A6A
:10254000AE01AE0AA91FA92AA809A909A80A031958
:10255000A90A280829040319D02AAD01AD0AA91B2C
:10256000BB2A0130A835A90D890BB22A0130AC0075
:102570002C08AD07AF2A29082B02031DC12A280801
:102580002A02031CC72A2808AA022908AB3B0130EB
:10259000A936A80C890BC82A0130AD02031DBB2A3D
:1025A0002E080319D82AAA09AB09AA0A0319AB0AEB
:1025B0002B08A9002A08A80008002D30C10020001F
:1025C0006E08FD39031D1A2B6E363F39DE000130CF
:1025D000DE35FF3E031DE82A5E35203EEA006A082C
:1025E000E700E80104306706E70000306806E8000D
:1025F0006A0886008701010C890C0F390D3A031D0A
:10260000172B4030F6000030F7006A08023E8600C3
:102610008701403FF800413FF9000830FA000030E0
:10262000FB009F31352792319331242308009131EB
:1026300019210800FD306E05DE0004305E06031D22
:1026400008008931AE2108002200C701C001BD0188
:10265000BC01C2012000E9017F30DD006108860075
:10266000620887005D08810504306106E1000030E2
:102670006206E2007F30DD006108860062088700A4
:102680005D08810504306106E10000306206E20069
:102690007F30DD0067088600680887005D088105D7
:1026A0002100ED01EE01EF012200A301A401A5012B
:1026B00097312A27933103302000D0000030D10019
:1026C0000030D200D3000030D400D5009131532126
:1026D00093318C31B42408003130F0002330F10004
:1026E0000130F2000030F3009E31B2269331903079
:1026F00086002330870081012D308600233087003B
:102700000030C03FC13FFA302300CF000030D0007E
:102710002000660823004E06031D922B200065084A
:1027200023004D0603199D2B200066082300CE00D0
:10273000200065082300CD00882B1E30F7000130F3
:102740009E3192269331F0012030F1000130F200E9
:10275000F301F30A01308A31A7222D30860023309D
:10276000870042317008C03F7108C13F0800200057
:10277000C801C901F52B2100ED1722004503031DF7
:10278000012C2000C814012C2100ED17012C210080
:10279000ED17200044080F39003A0319012CC41B1F
:1027A000DC2B44080F390907283E860001308700DA
:1027B000403FF000413FE52B44080F390907613ED7
:1027C00086008701403FF000413FF100700886001D
:1027D00071088700811F012C70088600710887002E
:1027E000011D012C0130C800012C40081F39003A9E
:1027F0000319BB2B013A0319C42B033A0319C72B46
:10280000012C2100ED1F08004830EB000030EC00E7
:102810006D140230EE000800BD00BB01BC013D0894
:1028200086008701403FB700413FB8003708840069
:102830003808850012002A3A031D502C3D088600F6
:1028400087010130810741310318810A350886006C
:102850000130870001088400850102308107003FB4
:10286000BB00013FBC00622C3A08B700B8013C082D
:10287000B0003B08AF000A30B1000030B2009E311A
:102880000326943137082F07BB003808303DBC00C1
:102890003D08860087010130810741310318810A14
:1028A0003D0886008701403FB700413FB800370828
:1028B0008400380885000008D03EBA000A303A0289
:1028C000031C342C3C08B6003B08B5000800B800D7
:1028D00022002C082D04031D752C2D082100B700A3
:1028E00022002C082100B6007E2C2C08FF3E21007F
:1028F000B600FF3022002D3D2100B7002200341C1D
:102900008E2C21003008B200B3013208A800330831
:10291000A9003808AA008831032094312100B71F8C
:10292000932CB601B701B401B5013508803AB20065
:102930003708803A3202031D9F2C360834020318F0
:10294000B12C20302100A8000030A9003808AA00CE
:1029500088310320943101302100B4070030B53DA7
:10296000952C22003418C02C21003008B200B3018D
:102970003208A8003308A9003808AA0088310320CB
:1029800021003408013EB0000030353DB1000800A0
:102990003F08A9003E08A8009C31F2249431280881
:1029A0002904031D282D3E085C3E860000303F3D73
:1029B00087000108C5003E085D3E860000303F3DAF
:1029C0008700010845060319282D4508C100C201EA
:1029D0004108AF004208B0003E085A3E8600003071
:1029E0003F3D8700403FB100413FB2009E3103268A
:1029F00094312F083E07C30030083F3DC400430810
:102A0000B5004408B6004008B7003E085A3E8600AC
:102A100000303F3D8700403FB800413FB900903152
:102A2000A820943135083604031D182D0130080004
:102A30000F30A8000030A9004508013EAA00003070
:102A400003180130AB009231982294312808DA2C17
:102A50000030080040085C3E86000030413D8700A1
:102A60000108C700C80140085E3E86000030413DB5
:102A7000870001084802031808004808A800400819
:102A80005A3E86000030413D870001089C31D02429
:102A900095314207B500B6014708C300C401430899
:102AA000AF004408B00040085A3E86000030413D67
:102AB0008700403FB100413FB2009E31032695316F
:102AC0002F084007C5003008413DC6004508B70043
:102AD0004608B80040085A3E86000030413D870055
:102AE000403FB900413FBA009F315B2795310F301D
:102AF000A8000030A9004708013EAA0000300318D2
:102B00000130AB009231982295312808C70001307E
:102B1000C3004308C807332D0830F20000302100FD
:102B20006F02083003196E020318A32D6E08F2001D
:102B300022004708031D9E2D0130A22D4703031DCF
:102B4000A32D0230C7007208F000F10170082100C7
:102B5000EE027108EF3B20006108013EF0000030FA
:102B6000623DF100700886007108870072088100DC
:102B700048302200C60021006D1CD52DEF2D22000B
:102B800046088600870121006B0884006C088500D8
:102B9000000881000130EB070030EC3D0130F0000F
:102BA00070082200C6070130F202720803190800FB
:102BB000BF2D220046088600870121006B08840093
:102BC0006C088500000881000130EB070030EC3D07
:102BD0000130F00070082200C6070130F2027208CE
:102BE00003190800D92DBD01BC010230200069067F
:102BF000031D252E6708013EF3000030683DF400F8
:102C00007308860074088700083081004830F3009C
:102C10000030F400FF307305F5007F307405F600D6
:102C2000670886006808870042317508C03F76084B
:102C3000C13F670886006808870048308100670840
:102C40008600680887008117080021006F082000AF
:102C50004702031D2F2E21006E0820004602031894
:102C6000382E47082100EF00200046082100EE0022
:102C700095318C254830F3000030F400FF307305A7
:102C8000F5007F307405F6002000610886006208B8
:102C9000870042317508C03F7608C13F6108860051
:102CA000620887004830810061088600620887005A
:102CB000811708005608F1005508F0009D310525E0
:102CC000963170087104031D080055085D3E8600AA
:102CD0000030563D87000108D900DA015908F0009C
:102CE0005A08F10055085A3E86000030563D8700CC
:102CF000403FF200413FF3009D31E82596317008D6
:102D00005507F6007108563DF7005808F9005708B6
:102D1000F80055085A3E86000030563D8700403F77
:102D2000FA00413FFB009F31352796310F30F0000C
:102D30000030F10055085D3E86000030563D8700AA
:102D40000108013EF200003003180130F300923117
:102D500053227008D90055085D3EDA000030563D18
:102D6000DB005A0886005B088700590881000130A3
:102D7000D90055085E3E86000030563D8700590850
:102D8000810708004108A9004008A8009D311925C5
:102D9000963128082904031D080040085D3E86007E
:102DA0000030413D87000108C400C5014408AF0060
:102DB0004508B00040085A3E86000030413D87007B
:102DC000403FB100413FB2009E31032696312F08AB
:102DD0004007B5003008413DB6004308B80042083E
:102DE000B70040085A3E86000030413D8700403F12
:102DF000B900413FBA009F315B2796310F30A800E0
:102E00000030A90040085D3E86000030413D87004B
:102E10000108013EAA00003003180130AB009231D6
:102E200098222808C40040085D3EC5000030413D9E
:102E3000C600450886004608870044088100013026
:102E4000C40040085E3E86000030413D87004408D3
:102E5000810708002000400E890C0339003A031D49
:102E60000800712F2100ED1708302000EB0008004A
:102E70008931352108008831C32008006F302100D6
:102E8000EB000030EC006D140130EE00ED1708008F
:102E90009331B72308008231B622080044084B3E24
:102EA0002100EB000130EC006D140130EE00ED1755
:102EB00008002100ED17200044084B3E8600013039
:102EC00087004208810008000230D0000030D100A5
:102ED0000030D200D3000030D400D500913153210E
:102EE00008004108003A0319482F013A03194B2FF3
:102EF000023A03194B2F063A0319322F033A0319EA
:102F0000382F013A0319642F0F3A03193E2F013A63
:102F100003193B2F033A03194E2F013A0319592F76
:102F2000073A0319942F942F0800C100C201C20A66
:102F300022002D082100C40022002C082100C3001B
:102F40001F30C6000030C7002400D101CE2FFF3053
:102F50002100C607FF30C73D3E080F39C5000A30C3
:102F600045020318B52F3030B62F3730C000400867
:102F7000C5074608323E86000230870045088100BA
:102F8000C201FF30C307FF30C43D3E0E0F39BE0003
:102F90003F0EF039BE043F0E0F39BF002100470835
:102FA000803AC00080304002031DD82F0230460214
:102FB000031CF02F21003E083F04031DA72F4208E9
:102FC000031DA72F4408803AC00080304002031D33
:102FD000EB2F01304302031CF02F2200B418A72F5F
:102FE00021004608323EB7004408B9004308B80043
:102FF0004108923110223808BF003708BE0008008F
:103000000534013409340634A1340134053407345D
:103010001934E0342934E7341534003425340134CC
:1030200075340134953408348134023495340134D4
:1030300075340834813403349534053475340134DF
:1030400005340834193401342934053491340234F8
:103050009534013475340334913403349534063493
:103060007534083415340034253465340534073498
:10307000193400342934653481340034C034343494
:1030800003344D3400346934003463340034723412
:1030900000346F34003463340034683400346934ED
:1030A0000034703400342034003454340034653437
:1030B000003463340034683400346E3400346F34C8
:1030C00000346C3400346F340034673400347934A5
:1030D000003420340034493400346E340034633416
:1030E00000342E34003409340234293400340134DD
:1030F00001340034C0343234093404340034003430
:1031000002340334013401340034093421341134DD
:1031100001340034013422343F34003407340534A0
:103120008134033408340034013407340534013465
:1031300003340834003401341C3403344B34003479
:103140006534003479340034623400346F34003430
:103150006134003472340034643400342034003478
:1031600044340034653400346D3400346F3400343A
:103170001234013400340234003400340034083492
:10318000D83404345534003401340034013402346A
:103190000034013425346334253430343234583427
:1031A0000D340A340034D93498343F3498349C3484
:0E31B0009834043403340934043473349834EE
:1037D2000800080008009D316F2508001D121D1603
:1037E2000800220020080800163097000800220076
:1037F2003A08031D08000130BA00080020004808FA
:103802002200A00080310220080020006D08031968
:103812000C2C013008000030080029082300E800C1
:10382200210028082300E700080029082300E600F9
:10383200210028082300E500080029082300D200FF
:10384200210028082300D100080029082300D600FF
:10385200210028082300D500080029082300D400ED
:10386200210028082300D300080029082300DA00D9
:10387200210028082300D900080029082300DC00C1
:10388200210028082300DB00080029082300D800B3
:10389200210028082300D70008000130B8070030B3
:1038A200B93D0030BA3D0030BB3D080023003B0863
:1038B200F3003A08F2003908F1003808F000080075
:1038C2002700131E672C9C318F249C31931E080005
:1038D2009C319C2408004E302100A8001C30A90015
:1038E2009C3146249C31883100200800911023002D
:1038F200570858040319080058088A0057080A0094
:103902009C3108006400800101310130FE02003068
:10391200FF3B7F087E0403190034842C23006708D0
:1039220068040319992C68088A0067080A009C3108
:103932002700131208002300650866040319A62C49
:1039420066088A0065080A009C3127009312080065
:10395200F3007308031D08007008F100F2017108FA
:103962002300CF007208D000080048302200A100D6
:103972000030A5000830A4001B30A700FF30A600CD
:10398200A3170800FC30210099009801903027000D
:103992009B002200960121001A1B0800CC2CAB00D0
:1039A200AA012B1CD82C2808A9002908AA07031051
:1039B200A80D0310AB0C2B08031DD22C2A080800FB
:1039C2005D3020009B009A019110210091148430F7
:1039D200A8001030A9009C3146240F3020009C0022
:1039E200080028085E3E86000030293D8700010855
:1039F200031DFD2C0130FE2C0030AA00AB012A0869
:103A0200A8002B08A900080070085E3E860000305E
:103A1200713D87000F300106031D112D0130122D5B
:103A22000030F200F3017208F0007308F1000800A0
:103A320028085E3E86000030293D87000F300106CF
:103A4200031D252D0130262D0030AA00AB012A08C6
:103A5200A8002B08A90008009F31D0279D319C3176
:103A6200C3249D319B31F5239D319C31E1249D314D
:103A72009131CF219D318D31E5259D319D31CF256C
:103A82000800AC002C08AB002C088600023087002E
:103A920001080319512D0130AA002A08AC07452D4F
:103AA2002B082C02A800A901A81BA90308000130B9
:103AB2002300C0070030C13D0030C23D0030C33D8D
:103AC20022004408031D08000130F0007008BB0703
:103AD2003B08031D0800FF30BB00080020006C08F3
:103AE200A83E8600013087002300190881000130BA
:103AF200F00070082000EC0708306C020318EC019B
:103B02000130F00070082300DF0708007108F70099
:103B12007008F6000130F4020030F53B740A031914
:103B2200750A03190800760886007708870072086C
:103B320081000130F6070030F73D8B2D1215EF3072
:103B4200FD007D0890058E1401302200C400BB01E7
:103B520075302000D0000030D1000030D200D300F8
:103B62000030D400D5009131532108002908AF005C
:103B72002808AE000130AC020030AD3B2C0A03191C
:103B82002D0A031908002E0886002F0887002A082C
:103B920081000130AE070030AF3DBB2D6B08031D25
:103BA20008003D008E019201163091009F3097006F
:103BB2007B309200210012150B178B173D008E19D6
:103BC200E42D8E15DF2D01302000EB000800F401FA
:103BD200F501701CF02D7208F4077308F53D0130F1
:103BE200F235F30D890BF12D0130F136F00C890B12
:103BF200F62D70087104031DEA2D7508F100740892
:103C0200F0000800B301B4012F1C0B2E3108B307DA
:103C12003208B43D0130B135B20D890B0C2E0130A2
:103C2200B036AF0C890B112E2F083004031D052E60
:103C32003408B0003308AF00080091302100A8001A
:103C42002330A9000330AA000030AB009E31D226F7
:103C52009E314430A8000F30A9009C310E249E31C1
:103C6200F8302100A8001B30A9009C31162408005E
:103C72002100C7009130A8002330A9009C31F22412
:103C82009E3128082904031D522E9130C000233092
:103C9200C1004708C200873196279E31C801C80A71
:103CA200532EC801480808002200C40174302000C5
:103CB200D0000030D1000030D200D3000030D40058
:103CC200D500913153219E313D008E101211101DED
:103CD2006F2EFB30FD007D089005682E2200BB018F
:103CE2000800083020006D0203188F2E22004808B9
:103CF200B03E860001308700010823009A0001309F
:103D0200F00070082200C807083048020318C801F2
:103D12000130F00070082000ED07080021001112A8
:103D22000800FC00771D9A2EF0017C089131902149
:103D32009E31F71CA12EF001F00A7C0891319021EE
:103D42007C08983EF800F9010E30F93D7808FA0037
:103D52007908FB007A0886007B08870077088100D3
:103D6200080070085A3E86000030713D87007208D4
:103D7200C03F7308C13F70085C3E86000030713D51
:103D82008700810170085D3E86000030713D87002A
:103D9200810170085E3E86000030713D870081011E
:103DA200080028085A3E86000030293D87002A086C
:103DB200C03F2B08C13F28085C3E86000030293DE9
:103DC2008700810128085D3E86000030293D87007A
:103DD200810128085E3E86000030293D870081016E
:103DE2000800B600B401B50134083607B100310845
:103DF2008600023087000108B30033080319080067
:103E02003308B100B2013108A8003208A900300815
:103E1200AA00883103209E3101302100B40700300E
:103E2200B53DF52E181C302F20006A088600870148
:103E320080300106031D2E2F61088600620887006C
:103E420084300106031D2E2F6A08860087010C307C
:103E520081006A088600870181173D001810DF3053
:103E6200F0007008900508007908D3007808D200A5
:103E72007708D1007608D0000130FA020030FB3B0F
:103E82007A0A03197B0A03190800520886005308AC
:103E920087000108D4000130D2070030D33D50081A
:103EA200860051088700540881000130D007003095
:103EB200D13D3D2F3808BE003708BD003608BC0092
:103EC2003508BB000130B9020030BA3B390A031988
:103ED2003A0A031908003D0886003E0887000108D7
:103EE200BF000130BD070030BE3D3B0886003C08E4
:103EF20087003F0881000130BB070030BC3D632FC3
:103F02002100A90020006D080319832F2100111A36
:103F12008E2F290823009A00A42F1112220049088B
:103F2200B03E86000130870021002908810001305F
:103F3200A80028082200C907083049020318C9014D
:103F420001302000ED02210011160800DB005808A4
:103F5200DD005708DC002300C701C80121005C080E
:103F620084005D08850012000319C72FDC30C800E9
:103F72005908C9005B088431D5249F3148082300C1
:103F8200C707210049082300C83DAF2F2300480876
:103F92002100D800230047082100D7000800220092
:103FA2008C018D018E01303021008C0070308D002B
:103FB200FF308E00CF3023008E008D018C01240053
:103FC2008D0130308C002100951322009D012700C5
:103FD200131293121216921611129112EA30210044
:103FE200A8001B30A9009C310E249F31EB30210028
:0E3FF200A8001B30A9009C3116248B15080076
:020000040001F9
:04000E00E43FCF3FBD
:00000001FF
